{
	"data": {
		"bytecode": {
			"linkReferences": {},
			"object": "60806040523480156200001157600080fd5b50604051620010c9380380620010c983398181016040526101408110156200003857600080fd5b50805160208083015160408401516060850151608086015160a087015160c088015160e08901516101008a0151610120909a0151600080546001600160a01b03808d166001600160a01b03199283161790925560018054838c1690831617905560028054928a1692909116919091179055600386905560048590556005849055989996989597949693959294919390929091620000fa90620000e8908690603c9062000c826200018f821b17901c565b42620001f660201b62000b911760201c565b6006819055506200011c620000e884603c6200018f60201b62000c821760201c565b600755600882905560098190556000600b8190555b60028160ff1610156200017e576000600c8260ff16600281106200015157fe5b602081049091018054921515601f9092166101000a91820260ff9092021990921617905560010162000131565b505050505050505050505062000251565b600082620001a057506000620001f0565b82820282848281620001ae57fe5b0414620001ed5760405162461bcd60e51b8152600401808060200182810382526021815260200180620010a86021913960400191505060405180910390fd5b90505b92915050565b600082820183811015620001ed576040805162461bcd60e51b815260206004820152601b60248201527f536166654d6174683a206164646974696f6e206f766572666c6f770000000000604482015290519081900360640190fd5b610e4780620002616000396000f3fe6080604052600436106101025760003560e01c80637284e41611610095578063aa8c217c11610064578063aa8c217c14610320578063cd3293de14610335578063d35c9a071461034a578063db582a1214610383578063e5b58e611461039857610109565b80637284e4161461023357806372cb3e82146102bd57806378bac3bc146102d25780639c57200a146102e757610109565b806354f703f8116100d157806354f703f8146101df5780636849ef83146101f45780637150d8ae14610209578063722713f71461021e57610109565b806308551a531461010e57806332fad9d81461013f578063334f6a6b1461017d5780633fb0971b146101a457610109565b3661010957005b600080fd5b34801561011a57600080fd5b506101236103d1565b604080516001600160a01b039092168252519081900360200190f35b34801561014b57600080fd5b506101696004803603602081101561016257600080fd5b50356103e0565b604080519115158252519081900360200190f35b34801561018957600080fd5b50610192610407565b60408051918252519081900360200190f35b3480156101b057600080fd5b506101dd600480360360408110156101c757600080fd5b506001600160a01b03813516906020013561040d565b005b3480156101eb57600080fd5b506101236104fd565b34801561020057600080fd5b5061019261050c565b34801561021557600080fd5b50610123610512565b34801561022a57600080fd5b50610192610521565b34801561023f57600080fd5b50610248610525565b6040805160208082528351818301528351919283929083019185019080838360005b8381101561028257818101518382015260200161026a565b50505050905090810190601f1680156102af5780820380516001836020036101000a031916815260200191505b509250505060405180910390f35b3480156102c957600080fd5b506101926105b3565b3480156102de57600080fd5b506101926105b9565b3480156102f357600080fd5b506101dd6004803603604081101561030a57600080fd5b506001600160a01b0381351690602001356105bf565b34801561032c57600080fd5b50610192610735565b34801561034157600080fd5b5061019261073b565b34801561035657600080fd5b506101dd6004803603604081101561036d57600080fd5b506001600160a01b038135169060200135610741565b34801561038f57600080fd5b506101926107ef565b3480156103a457600080fd5b506101dd600480360360408110156103bb57600080fd5b506001600160a01b0381351690602001356107f5565b6000546001600160a01b031681565b600c81600281106103ed57fe5b60209182820401919006915054906101000a900460ff1681565b60085481565b60015482906001600160a01b039081169082168114610461576040805162461bcd60e51b815260206004820152601d6024820152600080516020610d12833981519152604482015290519081900360640190fd5b600c54610100900460ff1680156104a95760405162461bcd60e51b8152600401808060200182810382526043815260200180610d936043913960600191505060405180910390fd5b600654429081116104eb5760405162461bcd60e51b8152600401808060200182810382526040815260200180610d326040913960400191505060405180910390fd5b6104f58587610a8d565b505050505050565b6001546001600160a01b031681565b60065481565b6002546001600160a01b031681565b4790565b600a805460408051602060026001851615610100026000190190941693909304601f810184900484028201840190925281815292918301828280156105ab5780601f10610580576101008083540402835291602001916105ab565b820191906000526020600020905b81548152906001019060200180831161058e57829003601f168201915b505050505081565b60095481565b60035481565b60015482906001600160a01b039081169082168114610613576040805162461bcd60e51b815260206004820152601d6024820152600080516020610d12833981519152604482015290519081900360640190fd5b600c5460ff1680156106565760405162461bcd60e51b8152600401808060200182810382526043815260200180610d936043913960600191505060405180910390fd5b83600454146106965760405162461bcd60e51b8152600401808060200182810382526036815260200180610cdc6036913960400191505060405180910390fd5b6000546004546005546001600160a01b03909216916108fc916106b891610b24565b6040518115909202916000818181858888f193505050501580156106e0573d6000803e3d6000fd5b50600c805460ff1916600190811790915560008054915460405187936001600160a01b03908116939216917f51a1a06191430448721e292133222a18764e814e7470bbadccf67416cfd081f591a45050505050565b60045481565b60055481565b60015482906001600160a01b039081169082168114610795576040805162461bcd60e51b815260206004820152601d6024820152600080516020610d12833981519152604482015290519081900360640190fd5b600c54610100900460ff161580156107de5760405162461bcd60e51b8152600401808060200182810382526043815260200180610d936043913960600191505060405180910390fd5b6107e88486610a8d565b5050505050565b60075481565b60025482906001600160a01b039081169082168114610849576040805162461bcd60e51b815260206004820152601d6024820152600080516020610d12833981519152604482015290519081900360640190fd5b600c5460ff1615801561088d5760405162461bcd60e51b8152600401808060200182810382526043815260200180610d936043913960600191505060405180910390fd5b600c54610100900460ff1680156108d55760405162461bcd60e51b8152600401808060200182810382526043815260200180610d936043913960600191505060405180910390fd5b600654429081111561092e576040805162461bcd60e51b815260206004820152601860248201527f546f6b656e20686173206265656e206578706972617465640000000000000000604482015290519081900360640190fd5b856004541461096e5760405162461bcd60e51b815260040180806020018281038252603c815260200180610dd6603c913960400191505060405180910390fd5b6005546001546040516001600160a01b039091169088156108fc029089906000818181858888f193505050501580156109ab573d6000803e3d6000fd5b5060075482116109c8576109c181600854610b24565b90506109ff565b600754821180156109db57506006548211155b15610109576109c1816109fa6008546109f5600954610b6f565b610b91565b610b24565b600080546040516001600160a01b039091169183156108fc02918491818181858888f19350505050158015610a38573d6000803e3d6000fd5b506000805460405183926001600160a01b039092169130917f51a1a06191430448721e292133222a18764e814e7470bbadccf67416cfd081f59190a45050600c805461ff001916610100179055505050505050565b60015481906001600160a01b039081169082168114610ae1576040805162461bcd60e51b815260206004820152601d6024820152600080516020610d12833981519152604482015290519081900360640190fd5b47841115610aee57600080fd5b6040516001600160a01b0384169085156108fc029086906000818181858888f193505050501580156107e8573d6000803e3d6000fd5b6000610b6683836040518060400160405280601e81526020017f536166654d6174683a207375627472616374696f6e206f766572666c6f770000815250610beb565b90505b92915050565b600080610b7e42600754610b24565b9050610b8a8184610c82565b9392505050565b600082820183811015610b66576040805162461bcd60e51b815260206004820152601b60248201527f536166654d6174683a206164646974696f6e206f766572666c6f770000000000604482015290519081900360640190fd5b60008184841115610c7a5760405162461bcd60e51b81526004018080602001828103825283818151815260200191508051906020019080838360005b83811015610c3f578181015183820152602001610c27565b50505050905090810190601f168015610c6c5780820380516001836020036101000a031916815260200191505b509250505060405180910390fd5b505050900390565b600082610c9157506000610b69565b82820282848281610c9e57fe5b0414610b665760405162461bcd60e51b8152600401808060200182810382526021815260200180610d726021913960400191505060405180910390fdfe5468652076616c7565207468617420796f752074727920746f207472616e73666572206e6f74206d617463682077697468206465616c596f7520617265206e6f7420617574686f72697a656420746f20706179000000596f752063616e2774207265636569766520616e797468696e6720636f757365207374696c6c20696e20666f726365207468652072616e6765206f6620706179536166654d6174683a206d756c7469706c69636174696f6e206f766572666c6f77546861742066756e6374696f6e20686173206265656e206578656375746564206f722069747320646570656e64656e636520686173206265656e20657865637574656454686520616d6f756e74206e6f74206d617463682077697468207468652076616c7565207468617420796f752074727920746f207472616e73666572a26469706673582212208f8763d9fde7f1e1e8bb38bfb1452076ac00a1373882af0a3a381d786af72ed764736f6c63430006020033536166654d6174683a206d756c7469706c69636174696f6e206f766572666c6f77",
			"opcodes": "PUSH1 0x80 PUSH1 0x40 MSTORE CALLVALUE DUP1 ISZERO PUSH3 0x11 JUMPI PUSH1 0x0 DUP1 REVERT JUMPDEST POP PUSH1 0x40 MLOAD PUSH3 0x10C9 CODESIZE SUB DUP1 PUSH3 0x10C9 DUP4 CODECOPY DUP2 DUP2 ADD PUSH1 0x40 MSTORE PUSH2 0x140 DUP2 LT ISZERO PUSH3 0x38 JUMPI PUSH1 0x0 DUP1 REVERT JUMPDEST POP DUP1 MLOAD PUSH1 0x20 DUP1 DUP4 ADD MLOAD PUSH1 0x40 DUP5 ADD MLOAD PUSH1 0x60 DUP6 ADD MLOAD PUSH1 0x80 DUP7 ADD MLOAD PUSH1 0xA0 DUP8 ADD MLOAD PUSH1 0xC0 DUP9 ADD MLOAD PUSH1 0xE0 DUP10 ADD MLOAD PUSH2 0x100 DUP11 ADD MLOAD PUSH2 0x120 SWAP1 SWAP11 ADD MLOAD PUSH1 0x0 DUP1 SLOAD PUSH1 0x1 PUSH1 0x1 PUSH1 0xA0 SHL SUB DUP1 DUP14 AND PUSH1 0x1 PUSH1 0x1 PUSH1 0xA0 SHL SUB NOT SWAP3 DUP4 AND OR SWAP1 SWAP3 SSTORE PUSH1 0x1 DUP1 SLOAD DUP4 DUP13 AND SWAP1 DUP4 AND OR SWAP1 SSTORE PUSH1 0x2 DUP1 SLOAD SWAP3 DUP11 AND SWAP3 SWAP1 SWAP2 AND SWAP2 SWAP1 SWAP2 OR SWAP1 SSTORE PUSH1 0x3 DUP7 SWAP1 SSTORE PUSH1 0x4 DUP6 SWAP1 SSTORE PUSH1 0x5 DUP5 SWAP1 SSTORE SWAP9 SWAP10 SWAP7 SWAP9 SWAP6 SWAP8 SWAP5 SWAP7 SWAP4 SWAP6 SWAP3 SWAP5 SWAP2 SWAP4 SWAP1 SWAP3 SWAP1 SWAP2 PUSH3 0xFA SWAP1 PUSH3 0xE8 SWAP1 DUP7 SWAP1 PUSH1 0x3C SWAP1 PUSH3 0xC82 PUSH3 0x18F DUP3 SHL OR SWAP1 SHR JUMP JUMPDEST TIMESTAMP PUSH3 0x1F6 PUSH1 0x20 SHL PUSH3 0xB91 OR PUSH1 0x20 SHR JUMP JUMPDEST PUSH1 0x6 DUP2 SWAP1 SSTORE POP PUSH3 0x11C PUSH3 0xE8 DUP5 PUSH1 0x3C PUSH3 0x18F PUSH1 0x20 SHL PUSH3 0xC82 OR PUSH1 0x20 SHR JUMP JUMPDEST PUSH1 0x7 SSTORE PUSH1 0x8 DUP3 SWAP1 SSTORE PUSH1 0x9 DUP2 SWAP1 SSTORE PUSH1 0x0 PUSH1 0xB DUP2 SWAP1 SSTORE JUMPDEST PUSH1 0x2 DUP2 PUSH1 0xFF AND LT ISZERO PUSH3 0x17E JUMPI PUSH1 0x0 PUSH1 0xC DUP3 PUSH1 0xFF AND PUSH1 0x2 DUP2 LT PUSH3 0x151 JUMPI INVALID JUMPDEST PUSH1 0x20 DUP2 DIV SWAP1 SWAP2 ADD DUP1 SLOAD SWAP3 ISZERO ISZERO PUSH1 0x1F SWAP1 SWAP3 AND PUSH2 0x100 EXP SWAP2 DUP3 MUL PUSH1 0xFF SWAP1 SWAP3 MUL NOT SWAP1 SWAP3 AND OR SWAP1 SSTORE PUSH1 0x1 ADD PUSH3 0x131 JUMP JUMPDEST POP POP POP POP POP POP POP POP POP POP POP PUSH3 0x251 JUMP JUMPDEST PUSH1 0x0 DUP3 PUSH3 0x1A0 JUMPI POP PUSH1 0x0 PUSH3 0x1F0 JUMP JUMPDEST DUP3 DUP3 MUL DUP3 DUP5 DUP3 DUP2 PUSH3 0x1AE JUMPI INVALID JUMPDEST DIV EQ PUSH3 0x1ED JUMPI PUSH1 0x40 MLOAD PUSH3 0x461BCD PUSH1 0xE5 SHL DUP2 MSTORE PUSH1 0x4 ADD DUP1 DUP1 PUSH1 0x20 ADD DUP3 DUP2 SUB DUP3 MSTORE PUSH1 0x21 DUP2 MSTORE PUSH1 0x20 ADD DUP1 PUSH3 0x10A8 PUSH1 0x21 SWAP2 CODECOPY PUSH1 0x40 ADD SWAP2 POP POP PUSH1 0x40 MLOAD DUP1 SWAP2 SUB SWAP1 REVERT JUMPDEST SWAP1 POP JUMPDEST SWAP3 SWAP2 POP POP JUMP JUMPDEST PUSH1 0x0 DUP3 DUP3 ADD DUP4 DUP2 LT ISZERO PUSH3 0x1ED JUMPI PUSH1 0x40 DUP1 MLOAD PUSH3 0x461BCD PUSH1 0xE5 SHL DUP2 MSTORE PUSH1 0x20 PUSH1 0x4 DUP3 ADD MSTORE PUSH1 0x1B PUSH1 0x24 DUP3 ADD MSTORE PUSH32 0x536166654D6174683A206164646974696F6E206F766572666C6F770000000000 PUSH1 0x44 DUP3 ADD MSTORE SWAP1 MLOAD SWAP1 DUP2 SWAP1 SUB PUSH1 0x64 ADD SWAP1 REVERT JUMPDEST PUSH2 0xE47 DUP1 PUSH3 0x261 PUSH1 0x0 CODECOPY PUSH1 0x0 RETURN INVALID PUSH1 0x80 PUSH1 0x40 MSTORE PUSH1 0x4 CALLDATASIZE LT PUSH2 0x102 JUMPI PUSH1 0x0 CALLDATALOAD PUSH1 0xE0 SHR DUP1 PUSH4 0x7284E416 GT PUSH2 0x95 JUMPI DUP1 PUSH4 0xAA8C217C GT PUSH2 0x64 JUMPI DUP1 PUSH4 0xAA8C217C EQ PUSH2 0x320 JUMPI DUP1 PUSH4 0xCD3293DE EQ PUSH2 0x335 JUMPI DUP1 PUSH4 0xD35C9A07 EQ PUSH2 0x34A JUMPI DUP1 PUSH4 0xDB582A12 EQ PUSH2 0x383 JUMPI DUP1 PUSH4 0xE5B58E61 EQ PUSH2 0x398 JUMPI PUSH2 0x109 JUMP JUMPDEST DUP1 PUSH4 0x7284E416 EQ PUSH2 0x233 JUMPI DUP1 PUSH4 0x72CB3E82 EQ PUSH2 0x2BD JUMPI DUP1 PUSH4 0x78BAC3BC EQ PUSH2 0x2D2 JUMPI DUP1 PUSH4 0x9C57200A EQ PUSH2 0x2E7 JUMPI PUSH2 0x109 JUMP JUMPDEST DUP1 PUSH4 0x54F703F8 GT PUSH2 0xD1 JUMPI DUP1 PUSH4 0x54F703F8 EQ PUSH2 0x1DF JUMPI DUP1 PUSH4 0x6849EF83 EQ PUSH2 0x1F4 JUMPI DUP1 PUSH4 0x7150D8AE EQ PUSH2 0x209 JUMPI DUP1 PUSH4 0x722713F7 EQ PUSH2 0x21E JUMPI PUSH2 0x109 JUMP JUMPDEST DUP1 PUSH4 0x8551A53 EQ PUSH2 0x10E JUMPI DUP1 PUSH4 0x32FAD9D8 EQ PUSH2 0x13F JUMPI DUP1 PUSH4 0x334F6A6B EQ PUSH2 0x17D JUMPI DUP1 PUSH4 0x3FB0971B EQ PUSH2 0x1A4 JUMPI PUSH2 0x109 JUMP JUMPDEST CALLDATASIZE PUSH2 0x109 JUMPI STOP JUMPDEST PUSH1 0x0 DUP1 REVERT JUMPDEST CALLVALUE DUP1 ISZERO PUSH2 0x11A JUMPI PUSH1 0x0 DUP1 REVERT JUMPDEST POP PUSH2 0x123 PUSH2 0x3D1 JUMP JUMPDEST PUSH1 0x40 DUP1 MLOAD PUSH1 0x1 PUSH1 0x1 PUSH1 0xA0 SHL SUB SWAP1 SWAP3 AND DUP3 MSTORE MLOAD SWAP1 DUP2 SWAP1 SUB PUSH1 0x20 ADD SWAP1 RETURN JUMPDEST CALLVALUE DUP1 ISZERO PUSH2 0x14B JUMPI PUSH1 0x0 DUP1 REVERT JUMPDEST POP PUSH2 0x169 PUSH1 0x4 DUP1 CALLDATASIZE SUB PUSH1 0x20 DUP2 LT ISZERO PUSH2 0x162 JUMPI PUSH1 0x0 DUP1 REVERT JUMPDEST POP CALLDATALOAD PUSH2 0x3E0 JUMP JUMPDEST PUSH1 0x40 DUP1 MLOAD SWAP2 ISZERO ISZERO DUP3 MSTORE MLOAD SWAP1 DUP2 SWAP1 SUB PUSH1 0x20 ADD SWAP1 RETURN JUMPDEST CALLVALUE DUP1 ISZERO PUSH2 0x189 JUMPI PUSH1 0x0 DUP1 REVERT JUMPDEST POP PUSH2 0x192 PUSH2 0x407 JUMP JUMPDEST PUSH1 0x40 DUP1 MLOAD SWAP2 DUP3 MSTORE MLOAD SWAP1 DUP2 SWAP1 SUB PUSH1 0x20 ADD SWAP1 RETURN JUMPDEST CALLVALUE DUP1 ISZERO PUSH2 0x1B0 JUMPI PUSH1 0x0 DUP1 REVERT JUMPDEST POP PUSH2 0x1DD PUSH1 0x4 DUP1 CALLDATASIZE SUB PUSH1 0x40 DUP2 LT ISZERO PUSH2 0x1C7 JUMPI PUSH1 0x0 DUP1 REVERT JUMPDEST POP PUSH1 0x1 PUSH1 0x1 PUSH1 0xA0 SHL SUB DUP2 CALLDATALOAD AND SWAP1 PUSH1 0x20 ADD CALLDATALOAD PUSH2 0x40D JUMP JUMPDEST STOP JUMPDEST CALLVALUE DUP1 ISZERO PUSH2 0x1EB JUMPI PUSH1 0x0 DUP1 REVERT JUMPDEST POP PUSH2 0x123 PUSH2 0x4FD JUMP JUMPDEST CALLVALUE DUP1 ISZERO PUSH2 0x200 JUMPI PUSH1 0x0 DUP1 REVERT JUMPDEST POP PUSH2 0x192 PUSH2 0x50C JUMP JUMPDEST CALLVALUE DUP1 ISZERO PUSH2 0x215 JUMPI PUSH1 0x0 DUP1 REVERT JUMPDEST POP PUSH2 0x123 PUSH2 0x512 JUMP JUMPDEST CALLVALUE DUP1 ISZERO PUSH2 0x22A JUMPI PUSH1 0x0 DUP1 REVERT JUMPDEST POP PUSH2 0x192 PUSH2 0x521 JUMP JUMPDEST CALLVALUE DUP1 ISZERO PUSH2 0x23F JUMPI PUSH1 0x0 DUP1 REVERT JUMPDEST POP PUSH2 0x248 PUSH2 0x525 JUMP JUMPDEST PUSH1 0x40 DUP1 MLOAD PUSH1 0x20 DUP1 DUP3 MSTORE DUP4 MLOAD DUP2 DUP4 ADD MSTORE DUP4 MLOAD SWAP2 SWAP3 DUP4 SWAP3 SWAP1 DUP4 ADD SWAP2 DUP6 ADD SWAP1 DUP1 DUP4 DUP4 PUSH1 0x0 JUMPDEST DUP4 DUP2 LT ISZERO PUSH2 0x282 JUMPI DUP2 DUP2 ADD MLOAD DUP4 DUP3 ADD MSTORE PUSH1 0x20 ADD PUSH2 0x26A JUMP JUMPDEST POP POP POP POP SWAP1 POP SWAP1 DUP2 ADD SWAP1 PUSH1 0x1F AND DUP1 ISZERO PUSH2 0x2AF JUMPI DUP1 DUP3 SUB DUP1 MLOAD PUSH1 0x1 DUP4 PUSH1 0x20 SUB PUSH2 0x100 EXP SUB NOT AND DUP2 MSTORE PUSH1 0x20 ADD SWAP2 POP JUMPDEST POP SWAP3 POP POP POP PUSH1 0x40 MLOAD DUP1 SWAP2 SUB SWAP1 RETURN JUMPDEST CALLVALUE DUP1 ISZERO PUSH2 0x2C9 JUMPI PUSH1 0x0 DUP1 REVERT JUMPDEST POP PUSH2 0x192 PUSH2 0x5B3 JUMP JUMPDEST CALLVALUE DUP1 ISZERO PUSH2 0x2DE JUMPI PUSH1 0x0 DUP1 REVERT JUMPDEST POP PUSH2 0x192 PUSH2 0x5B9 JUMP JUMPDEST CALLVALUE DUP1 ISZERO PUSH2 0x2F3 JUMPI PUSH1 0x0 DUP1 REVERT JUMPDEST POP PUSH2 0x1DD PUSH1 0x4 DUP1 CALLDATASIZE SUB PUSH1 0x40 DUP2 LT ISZERO PUSH2 0x30A JUMPI PUSH1 0x0 DUP1 REVERT JUMPDEST POP PUSH1 0x1 PUSH1 0x1 PUSH1 0xA0 SHL SUB DUP2 CALLDATALOAD AND SWAP1 PUSH1 0x20 ADD CALLDATALOAD PUSH2 0x5BF JUMP JUMPDEST CALLVALUE DUP1 ISZERO PUSH2 0x32C JUMPI PUSH1 0x0 DUP1 REVERT JUMPDEST POP PUSH2 0x192 PUSH2 0x735 JUMP JUMPDEST CALLVALUE DUP1 ISZERO PUSH2 0x341 JUMPI PUSH1 0x0 DUP1 REVERT JUMPDEST POP PUSH2 0x192 PUSH2 0x73B JUMP JUMPDEST CALLVALUE DUP1 ISZERO PUSH2 0x356 JUMPI PUSH1 0x0 DUP1 REVERT JUMPDEST POP PUSH2 0x1DD PUSH1 0x4 DUP1 CALLDATASIZE SUB PUSH1 0x40 DUP2 LT ISZERO PUSH2 0x36D JUMPI PUSH1 0x0 DUP1 REVERT JUMPDEST POP PUSH1 0x1 PUSH1 0x1 PUSH1 0xA0 SHL SUB DUP2 CALLDATALOAD AND SWAP1 PUSH1 0x20 ADD CALLDATALOAD PUSH2 0x741 JUMP JUMPDEST CALLVALUE DUP1 ISZERO PUSH2 0x38F JUMPI PUSH1 0x0 DUP1 REVERT JUMPDEST POP PUSH2 0x192 PUSH2 0x7EF JUMP JUMPDEST CALLVALUE DUP1 ISZERO PUSH2 0x3A4 JUMPI PUSH1 0x0 DUP1 REVERT JUMPDEST POP PUSH2 0x1DD PUSH1 0x4 DUP1 CALLDATASIZE SUB PUSH1 0x40 DUP2 LT ISZERO PUSH2 0x3BB JUMPI PUSH1 0x0 DUP1 REVERT JUMPDEST POP PUSH1 0x1 PUSH1 0x1 PUSH1 0xA0 SHL SUB DUP2 CALLDATALOAD AND SWAP1 PUSH1 0x20 ADD CALLDATALOAD PUSH2 0x7F5 JUMP JUMPDEST PUSH1 0x0 SLOAD PUSH1 0x1 PUSH1 0x1 PUSH1 0xA0 SHL SUB AND DUP2 JUMP JUMPDEST PUSH1 0xC DUP2 PUSH1 0x2 DUP2 LT PUSH2 0x3ED JUMPI INVALID JUMPDEST PUSH1 0x20 SWAP2 DUP3 DUP3 DIV ADD SWAP2 SWAP1 MOD SWAP2 POP SLOAD SWAP1 PUSH2 0x100 EXP SWAP1 DIV PUSH1 0xFF AND DUP2 JUMP JUMPDEST PUSH1 0x8 SLOAD DUP2 JUMP JUMPDEST PUSH1 0x1 SLOAD DUP3 SWAP1 PUSH1 0x1 PUSH1 0x1 PUSH1 0xA0 SHL SUB SWAP1 DUP2 AND SWAP1 DUP3 AND DUP2 EQ PUSH2 0x461 JUMPI PUSH1 0x40 DUP1 MLOAD PUSH3 0x461BCD PUSH1 0xE5 SHL DUP2 MSTORE PUSH1 0x20 PUSH1 0x4 DUP3 ADD MSTORE PUSH1 0x1D PUSH1 0x24 DUP3 ADD MSTORE PUSH1 0x0 DUP1 MLOAD PUSH1 0x20 PUSH2 0xD12 DUP4 CODECOPY DUP2 MLOAD SWAP2 MSTORE PUSH1 0x44 DUP3 ADD MSTORE SWAP1 MLOAD SWAP1 DUP2 SWAP1 SUB PUSH1 0x64 ADD SWAP1 REVERT JUMPDEST PUSH1 0xC SLOAD PUSH2 0x100 SWAP1 DIV PUSH1 0xFF AND DUP1 ISZERO PUSH2 0x4A9 JUMPI PUSH1 0x40 MLOAD PUSH3 0x461BCD PUSH1 0xE5 SHL DUP2 MSTORE PUSH1 0x4 ADD DUP1 DUP1 PUSH1 0x20 ADD DUP3 DUP2 SUB DUP3 MSTORE PUSH1 0x43 DUP2 MSTORE PUSH1 0x20 ADD DUP1 PUSH2 0xD93 PUSH1 0x43 SWAP2 CODECOPY PUSH1 0x60 ADD SWAP2 POP POP PUSH1 0x40 MLOAD DUP1 SWAP2 SUB SWAP1 REVERT JUMPDEST PUSH1 0x6 SLOAD TIMESTAMP SWAP1 DUP2 GT PUSH2 0x4EB JUMPI PUSH1 0x40 MLOAD PUSH3 0x461BCD PUSH1 0xE5 SHL DUP2 MSTORE PUSH1 0x4 ADD DUP1 DUP1 PUSH1 0x20 ADD DUP3 DUP2 SUB DUP3 MSTORE PUSH1 0x40 DUP2 MSTORE PUSH1 0x20 ADD DUP1 PUSH2 0xD32 PUSH1 0x40 SWAP2 CODECOPY PUSH1 0x40 ADD SWAP2 POP POP PUSH1 0x40 MLOAD DUP1 SWAP2 SUB SWAP1 REVERT JUMPDEST PUSH2 0x4F5 DUP6 DUP8 PUSH2 0xA8D JUMP JUMPDEST POP POP POP POP POP POP JUMP JUMPDEST PUSH1 0x1 SLOAD PUSH1 0x1 PUSH1 0x1 PUSH1 0xA0 SHL SUB AND DUP2 JUMP JUMPDEST PUSH1 0x6 SLOAD DUP2 JUMP JUMPDEST PUSH1 0x2 SLOAD PUSH1 0x1 PUSH1 0x1 PUSH1 0xA0 SHL SUB AND DUP2 JUMP JUMPDEST SELFBALANCE SWAP1 JUMP JUMPDEST PUSH1 0xA DUP1 SLOAD PUSH1 0x40 DUP1 MLOAD PUSH1 0x20 PUSH1 0x2 PUSH1 0x1 DUP6 AND ISZERO PUSH2 0x100 MUL PUSH1 0x0 NOT ADD SWAP1 SWAP5 AND SWAP4 SWAP1 SWAP4 DIV PUSH1 0x1F DUP2 ADD DUP5 SWAP1 DIV DUP5 MUL DUP3 ADD DUP5 ADD SWAP1 SWAP3 MSTORE DUP2 DUP2 MSTORE SWAP3 SWAP2 DUP4 ADD DUP3 DUP3 DUP1 ISZERO PUSH2 0x5AB JUMPI DUP1 PUSH1 0x1F LT PUSH2 0x580 JUMPI PUSH2 0x100 DUP1 DUP4 SLOAD DIV MUL DUP4 MSTORE SWAP2 PUSH1 0x20 ADD SWAP2 PUSH2 0x5AB JUMP JUMPDEST DUP3 ADD SWAP2 SWAP1 PUSH1 0x0 MSTORE PUSH1 0x20 PUSH1 0x0 KECCAK256 SWAP1 JUMPDEST DUP2 SLOAD DUP2 MSTORE SWAP1 PUSH1 0x1 ADD SWAP1 PUSH1 0x20 ADD DUP1 DUP4 GT PUSH2 0x58E JUMPI DUP3 SWAP1 SUB PUSH1 0x1F AND DUP3 ADD SWAP2 JUMPDEST POP POP POP POP POP DUP2 JUMP JUMPDEST PUSH1 0x9 SLOAD DUP2 JUMP JUMPDEST PUSH1 0x3 SLOAD DUP2 JUMP JUMPDEST PUSH1 0x1 SLOAD DUP3 SWAP1 PUSH1 0x1 PUSH1 0x1 PUSH1 0xA0 SHL SUB SWAP1 DUP2 AND SWAP1 DUP3 AND DUP2 EQ PUSH2 0x613 JUMPI PUSH1 0x40 DUP1 MLOAD PUSH3 0x461BCD PUSH1 0xE5 SHL DUP2 MSTORE PUSH1 0x20 PUSH1 0x4 DUP3 ADD MSTORE PUSH1 0x1D PUSH1 0x24 DUP3 ADD MSTORE PUSH1 0x0 DUP1 MLOAD PUSH1 0x20 PUSH2 0xD12 DUP4 CODECOPY DUP2 MLOAD SWAP2 MSTORE PUSH1 0x44 DUP3 ADD MSTORE SWAP1 MLOAD SWAP1 DUP2 SWAP1 SUB PUSH1 0x64 ADD SWAP1 REVERT JUMPDEST PUSH1 0xC SLOAD PUSH1 0xFF AND DUP1 ISZERO PUSH2 0x656 JUMPI PUSH1 0x40 MLOAD PUSH3 0x461BCD PUSH1 0xE5 SHL DUP2 MSTORE PUSH1 0x4 ADD DUP1 DUP1 PUSH1 0x20 ADD DUP3 DUP2 SUB DUP3 MSTORE PUSH1 0x43 DUP2 MSTORE PUSH1 0x20 ADD DUP1 PUSH2 0xD93 PUSH1 0x43 SWAP2 CODECOPY PUSH1 0x60 ADD SWAP2 POP POP PUSH1 0x40 MLOAD DUP1 SWAP2 SUB SWAP1 REVERT JUMPDEST DUP4 PUSH1 0x4 SLOAD EQ PUSH2 0x696 JUMPI PUSH1 0x40 MLOAD PUSH3 0x461BCD PUSH1 0xE5 SHL DUP2 MSTORE PUSH1 0x4 ADD DUP1 DUP1 PUSH1 0x20 ADD DUP3 DUP2 SUB DUP3 MSTORE PUSH1 0x36 DUP2 MSTORE PUSH1 0x20 ADD DUP1 PUSH2 0xCDC PUSH1 0x36 SWAP2 CODECOPY PUSH1 0x40 ADD SWAP2 POP POP PUSH1 0x40 MLOAD DUP1 SWAP2 SUB SWAP1 REVERT JUMPDEST PUSH1 0x0 SLOAD PUSH1 0x4 SLOAD PUSH1 0x5 SLOAD PUSH1 0x1 PUSH1 0x1 PUSH1 0xA0 SHL SUB SWAP1 SWAP3 AND SWAP2 PUSH2 0x8FC SWAP2 PUSH2 0x6B8 SWAP2 PUSH2 0xB24 JUMP JUMPDEST PUSH1 0x40 MLOAD DUP2 ISZERO SWAP1 SWAP3 MUL SWAP2 PUSH1 0x0 DUP2 DUP2 DUP2 DUP6 DUP9 DUP9 CALL SWAP4 POP POP POP POP ISZERO DUP1 ISZERO PUSH2 0x6E0 JUMPI RETURNDATASIZE PUSH1 0x0 DUP1 RETURNDATACOPY RETURNDATASIZE PUSH1 0x0 REVERT JUMPDEST POP PUSH1 0xC DUP1 SLOAD PUSH1 0xFF NOT AND PUSH1 0x1 SWAP1 DUP2 OR SWAP1 SWAP2 SSTORE PUSH1 0x0 DUP1 SLOAD SWAP2 SLOAD PUSH1 0x40 MLOAD DUP8 SWAP4 PUSH1 0x1 PUSH1 0x1 PUSH1 0xA0 SHL SUB SWAP1 DUP2 AND SWAP4 SWAP3 AND SWAP2 PUSH32 0x51A1A06191430448721E292133222A18764E814E7470BBADCCF67416CFD081F5 SWAP2 LOG4 POP POP POP POP POP JUMP JUMPDEST PUSH1 0x4 SLOAD DUP2 JUMP JUMPDEST PUSH1 0x5 SLOAD DUP2 JUMP JUMPDEST PUSH1 0x1 SLOAD DUP3 SWAP1 PUSH1 0x1 PUSH1 0x1 PUSH1 0xA0 SHL SUB SWAP1 DUP2 AND SWAP1 DUP3 AND DUP2 EQ PUSH2 0x795 JUMPI PUSH1 0x40 DUP1 MLOAD PUSH3 0x461BCD PUSH1 0xE5 SHL DUP2 MSTORE PUSH1 0x20 PUSH1 0x4 DUP3 ADD MSTORE PUSH1 0x1D PUSH1 0x24 DUP3 ADD MSTORE PUSH1 0x0 DUP1 MLOAD PUSH1 0x20 PUSH2 0xD12 DUP4 CODECOPY DUP2 MLOAD SWAP2 MSTORE PUSH1 0x44 DUP3 ADD MSTORE SWAP1 MLOAD SWAP1 DUP2 SWAP1 SUB PUSH1 0x64 ADD SWAP1 REVERT JUMPDEST PUSH1 0xC SLOAD PUSH2 0x100 SWAP1 DIV PUSH1 0xFF AND ISZERO DUP1 ISZERO PUSH2 0x7DE JUMPI PUSH1 0x40 MLOAD PUSH3 0x461BCD PUSH1 0xE5 SHL DUP2 MSTORE PUSH1 0x4 ADD DUP1 DUP1 PUSH1 0x20 ADD DUP3 DUP2 SUB DUP3 MSTORE PUSH1 0x43 DUP2 MSTORE PUSH1 0x20 ADD DUP1 PUSH2 0xD93 PUSH1 0x43 SWAP2 CODECOPY PUSH1 0x60 ADD SWAP2 POP POP PUSH1 0x40 MLOAD DUP1 SWAP2 SUB SWAP1 REVERT JUMPDEST PUSH2 0x7E8 DUP5 DUP7 PUSH2 0xA8D JUMP JUMPDEST POP POP POP POP POP JUMP JUMPDEST PUSH1 0x7 SLOAD DUP2 JUMP JUMPDEST PUSH1 0x2 SLOAD DUP3 SWAP1 PUSH1 0x1 PUSH1 0x1 PUSH1 0xA0 SHL SUB SWAP1 DUP2 AND SWAP1 DUP3 AND DUP2 EQ PUSH2 0x849 JUMPI PUSH1 0x40 DUP1 MLOAD PUSH3 0x461BCD PUSH1 0xE5 SHL DUP2 MSTORE PUSH1 0x20 PUSH1 0x4 DUP3 ADD MSTORE PUSH1 0x1D PUSH1 0x24 DUP3 ADD MSTORE PUSH1 0x0 DUP1 MLOAD PUSH1 0x20 PUSH2 0xD12 DUP4 CODECOPY DUP2 MLOAD SWAP2 MSTORE PUSH1 0x44 DUP3 ADD MSTORE SWAP1 MLOAD SWAP1 DUP2 SWAP1 SUB PUSH1 0x64 ADD SWAP1 REVERT JUMPDEST PUSH1 0xC SLOAD PUSH1 0xFF AND ISZERO DUP1 ISZERO PUSH2 0x88D JUMPI PUSH1 0x40 MLOAD PUSH3 0x461BCD PUSH1 0xE5 SHL DUP2 MSTORE PUSH1 0x4 ADD DUP1 DUP1 PUSH1 0x20 ADD DUP3 DUP2 SUB DUP3 MSTORE PUSH1 0x43 DUP2 MSTORE PUSH1 0x20 ADD DUP1 PUSH2 0xD93 PUSH1 0x43 SWAP2 CODECOPY PUSH1 0x60 ADD SWAP2 POP POP PUSH1 0x40 MLOAD DUP1 SWAP2 SUB SWAP1 REVERT JUMPDEST PUSH1 0xC SLOAD PUSH2 0x100 SWAP1 DIV PUSH1 0xFF AND DUP1 ISZERO PUSH2 0x8D5 JUMPI PUSH1 0x40 MLOAD PUSH3 0x461BCD PUSH1 0xE5 SHL DUP2 MSTORE PUSH1 0x4 ADD DUP1 DUP1 PUSH1 0x20 ADD DUP3 DUP2 SUB DUP3 MSTORE PUSH1 0x43 DUP2 MSTORE PUSH1 0x20 ADD DUP1 PUSH2 0xD93 PUSH1 0x43 SWAP2 CODECOPY PUSH1 0x60 ADD SWAP2 POP POP PUSH1 0x40 MLOAD DUP1 SWAP2 SUB SWAP1 REVERT JUMPDEST PUSH1 0x6 SLOAD TIMESTAMP SWAP1 DUP2 GT ISZERO PUSH2 0x92E JUMPI PUSH1 0x40 DUP1 MLOAD PUSH3 0x461BCD PUSH1 0xE5 SHL DUP2 MSTORE PUSH1 0x20 PUSH1 0x4 DUP3 ADD MSTORE PUSH1 0x18 PUSH1 0x24 DUP3 ADD MSTORE PUSH32 0x546F6B656E20686173206265656E206578706972617465640000000000000000 PUSH1 0x44 DUP3 ADD MSTORE SWAP1 MLOAD SWAP1 DUP2 SWAP1 SUB PUSH1 0x64 ADD SWAP1 REVERT JUMPDEST DUP6 PUSH1 0x4 SLOAD EQ PUSH2 0x96E JUMPI PUSH1 0x40 MLOAD PUSH3 0x461BCD PUSH1 0xE5 SHL DUP2 MSTORE PUSH1 0x4 ADD DUP1 DUP1 PUSH1 0x20 ADD DUP3 DUP2 SUB DUP3 MSTORE PUSH1 0x3C DUP2 MSTORE PUSH1 0x20 ADD DUP1 PUSH2 0xDD6 PUSH1 0x3C SWAP2 CODECOPY PUSH1 0x40 ADD SWAP2 POP POP PUSH1 0x40 MLOAD DUP1 SWAP2 SUB SWAP1 REVERT JUMPDEST PUSH1 0x5 SLOAD PUSH1 0x1 SLOAD PUSH1 0x40 MLOAD PUSH1 0x1 PUSH1 0x1 PUSH1 0xA0 SHL SUB SWAP1 SWAP2 AND SWAP1 DUP9 ISZERO PUSH2 0x8FC MUL SWAP1 DUP10 SWAP1 PUSH1 0x0 DUP2 DUP2 DUP2 DUP6 DUP9 DUP9 CALL SWAP4 POP POP POP POP ISZERO DUP1 ISZERO PUSH2 0x9AB JUMPI RETURNDATASIZE PUSH1 0x0 DUP1 RETURNDATACOPY RETURNDATASIZE PUSH1 0x0 REVERT JUMPDEST POP PUSH1 0x7 SLOAD DUP3 GT PUSH2 0x9C8 JUMPI PUSH2 0x9C1 DUP2 PUSH1 0x8 SLOAD PUSH2 0xB24 JUMP JUMPDEST SWAP1 POP PUSH2 0x9FF JUMP JUMPDEST PUSH1 0x7 SLOAD DUP3 GT DUP1 ISZERO PUSH2 0x9DB JUMPI POP PUSH1 0x6 SLOAD DUP3 GT ISZERO JUMPDEST ISZERO PUSH2 0x109 JUMPI PUSH2 0x9C1 DUP2 PUSH2 0x9FA PUSH1 0x8 SLOAD PUSH2 0x9F5 PUSH1 0x9 SLOAD PUSH2 0xB6F JUMP JUMPDEST PUSH2 0xB91 JUMP JUMPDEST PUSH2 0xB24 JUMP JUMPDEST PUSH1 0x0 DUP1 SLOAD PUSH1 0x40 MLOAD PUSH1 0x1 PUSH1 0x1 PUSH1 0xA0 SHL SUB SWAP1 SWAP2 AND SWAP2 DUP4 ISZERO PUSH2 0x8FC MUL SWAP2 DUP5 SWAP2 DUP2 DUP2 DUP2 DUP6 DUP9 DUP9 CALL SWAP4 POP POP POP POP ISZERO DUP1 ISZERO PUSH2 0xA38 JUMPI RETURNDATASIZE PUSH1 0x0 DUP1 RETURNDATACOPY RETURNDATASIZE PUSH1 0x0 REVERT JUMPDEST POP PUSH1 0x0 DUP1 SLOAD PUSH1 0x40 MLOAD DUP4 SWAP3 PUSH1 0x1 PUSH1 0x1 PUSH1 0xA0 SHL SUB SWAP1 SWAP3 AND SWAP2 ADDRESS SWAP2 PUSH32 0x51A1A06191430448721E292133222A18764E814E7470BBADCCF67416CFD081F5 SWAP2 SWAP1 LOG4 POP POP PUSH1 0xC DUP1 SLOAD PUSH2 0xFF00 NOT AND PUSH2 0x100 OR SWAP1 SSTORE POP POP POP POP POP POP JUMP JUMPDEST PUSH1 0x1 SLOAD DUP2 SWAP1 PUSH1 0x1 PUSH1 0x1 PUSH1 0xA0 SHL SUB SWAP1 DUP2 AND SWAP1 DUP3 AND DUP2 EQ PUSH2 0xAE1 JUMPI PUSH1 0x40 DUP1 MLOAD PUSH3 0x461BCD PUSH1 0xE5 SHL DUP2 MSTORE PUSH1 0x20 PUSH1 0x4 DUP3 ADD MSTORE PUSH1 0x1D PUSH1 0x24 DUP3 ADD MSTORE PUSH1 0x0 DUP1 MLOAD PUSH1 0x20 PUSH2 0xD12 DUP4 CODECOPY DUP2 MLOAD SWAP2 MSTORE PUSH1 0x44 DUP3 ADD MSTORE SWAP1 MLOAD SWAP1 DUP2 SWAP1 SUB PUSH1 0x64 ADD SWAP1 REVERT JUMPDEST SELFBALANCE DUP5 GT ISZERO PUSH2 0xAEE JUMPI PUSH1 0x0 DUP1 REVERT JUMPDEST PUSH1 0x40 MLOAD PUSH1 0x1 PUSH1 0x1 PUSH1 0xA0 SHL SUB DUP5 AND SWAP1 DUP6 ISZERO PUSH2 0x8FC MUL SWAP1 DUP7 SWAP1 PUSH1 0x0 DUP2 DUP2 DUP2 DUP6 DUP9 DUP9 CALL SWAP4 POP POP POP POP ISZERO DUP1 ISZERO PUSH2 0x7E8 JUMPI RETURNDATASIZE PUSH1 0x0 DUP1 RETURNDATACOPY RETURNDATASIZE PUSH1 0x0 REVERT JUMPDEST PUSH1 0x0 PUSH2 0xB66 DUP4 DUP4 PUSH1 0x40 MLOAD DUP1 PUSH1 0x40 ADD PUSH1 0x40 MSTORE DUP1 PUSH1 0x1E DUP2 MSTORE PUSH1 0x20 ADD PUSH32 0x536166654D6174683A207375627472616374696F6E206F766572666C6F770000 DUP2 MSTORE POP PUSH2 0xBEB JUMP JUMPDEST SWAP1 POP JUMPDEST SWAP3 SWAP2 POP POP JUMP JUMPDEST PUSH1 0x0 DUP1 PUSH2 0xB7E TIMESTAMP PUSH1 0x7 SLOAD PUSH2 0xB24 JUMP JUMPDEST SWAP1 POP PUSH2 0xB8A DUP2 DUP5 PUSH2 0xC82 JUMP JUMPDEST SWAP4 SWAP3 POP POP POP JUMP JUMPDEST PUSH1 0x0 DUP3 DUP3 ADD DUP4 DUP2 LT ISZERO PUSH2 0xB66 JUMPI PUSH1 0x40 DUP1 MLOAD PUSH3 0x461BCD PUSH1 0xE5 SHL DUP2 MSTORE PUSH1 0x20 PUSH1 0x4 DUP3 ADD MSTORE PUSH1 0x1B PUSH1 0x24 DUP3 ADD MSTORE PUSH32 0x536166654D6174683A206164646974696F6E206F766572666C6F770000000000 PUSH1 0x44 DUP3 ADD MSTORE SWAP1 MLOAD SWAP1 DUP2 SWAP1 SUB PUSH1 0x64 ADD SWAP1 REVERT JUMPDEST PUSH1 0x0 DUP2 DUP5 DUP5 GT ISZERO PUSH2 0xC7A JUMPI PUSH1 0x40 MLOAD PUSH3 0x461BCD PUSH1 0xE5 SHL DUP2 MSTORE PUSH1 0x4 ADD DUP1 DUP1 PUSH1 0x20 ADD DUP3 DUP2 SUB DUP3 MSTORE DUP4 DUP2 DUP2 MLOAD DUP2 MSTORE PUSH1 0x20 ADD SWAP2 POP DUP1 MLOAD SWAP1 PUSH1 0x20 ADD SWAP1 DUP1 DUP4 DUP4 PUSH1 0x0 JUMPDEST DUP4 DUP2 LT ISZERO PUSH2 0xC3F JUMPI DUP2 DUP2 ADD MLOAD DUP4 DUP3 ADD MSTORE PUSH1 0x20 ADD PUSH2 0xC27 JUMP JUMPDEST POP POP POP POP SWAP1 POP SWAP1 DUP2 ADD SWAP1 PUSH1 0x1F AND DUP1 ISZERO PUSH2 0xC6C JUMPI DUP1 DUP3 SUB DUP1 MLOAD PUSH1 0x1 DUP4 PUSH1 0x20 SUB PUSH2 0x100 EXP SUB NOT AND DUP2 MSTORE PUSH1 0x20 ADD SWAP2 POP JUMPDEST POP SWAP3 POP POP POP PUSH1 0x40 MLOAD DUP1 SWAP2 SUB SWAP1 REVERT JUMPDEST POP POP POP SWAP1 SUB SWAP1 JUMP JUMPDEST PUSH1 0x0 DUP3 PUSH2 0xC91 JUMPI POP PUSH1 0x0 PUSH2 0xB69 JUMP JUMPDEST DUP3 DUP3 MUL DUP3 DUP5 DUP3 DUP2 PUSH2 0xC9E JUMPI INVALID JUMPDEST DIV EQ PUSH2 0xB66 JUMPI PUSH1 0x40 MLOAD PUSH3 0x461BCD PUSH1 0xE5 SHL DUP2 MSTORE PUSH1 0x4 ADD DUP1 DUP1 PUSH1 0x20 ADD DUP3 DUP2 SUB DUP3 MSTORE PUSH1 0x21 DUP2 MSTORE PUSH1 0x20 ADD DUP1 PUSH2 0xD72 PUSH1 0x21 SWAP2 CODECOPY PUSH1 0x40 ADD SWAP2 POP POP PUSH1 0x40 MLOAD DUP1 SWAP2 SUB SWAP1 REVERT INVALID SLOAD PUSH9 0x652076616C75652074 PUSH9 0x617420796F75207472 PUSH26 0x20746F207472616E73666572206E6F74206D6174636820776974 PUSH9 0x206465616C596F7520 PUSH2 0x7265 KECCAK256 PUSH15 0x6F7420617574686F72697A65642074 PUSH16 0x20706179000000596F752063616E2774 KECCAK256 PUSH19 0x65636569766520616E797468696E6720636F75 PUSH20 0x65207374696C6C20696E20666F72636520746865 KECCAK256 PUSH19 0x616E6765206F6620706179536166654D617468 GASPRICE KECCAK256 PUSH14 0x756C7469706C69636174696F6E20 PUSH16 0x766572666C6F77546861742066756E63 PUSH21 0x696F6E20686173206265656E206578656375746564 KECCAK256 PUSH16 0x722069747320646570656E64656E6365 KECCAK256 PUSH9 0x6173206265656E2065 PUSH25 0x65637574656454686520616D6F756E74206E6F74206D617463 PUSH9 0x207769746820746865 KECCAK256 PUSH23 0x616C7565207468617420796F752074727920746F207472 PUSH2 0x6E73 PUSH7 0x6572A264697066 PUSH20 0x582212208F8763D9FDE7F1E1E8BB38BFB1452076 0xAC STOP LOG1 CALLDATACOPY CODESIZE DUP3 0xAF EXP GASPRICE CODESIZE SAR PUSH25 0x6AF72ED764736F6C63430006020033536166654D6174683A20 PUSH14 0x756C7469706C69636174696F6E20 PUSH16 0x766572666C6F77000000000000000000 "
		},
		"gasEstimates": {
			"creation": {
				"codeDepositCost": "731000",
				"executionCost": "infinite",
				"totalCost": "infinite"
			},
			"external": {
				"activated(uint256)": "2784",
				"amount()": "1020",
				"balanceOf()": "289",
				"buyer()": "1104",
				"dayMaxOfSaleInvoice()": "1043",
				"daysOutstandingFactoring()": "1086",
				"description()": "infinite",
				"factor()": "1060",
				"factoringFee()": "1066",
				"feePerDay()": "1043",
				"fundingEvent(address,uint256)": "infinite",
				"nonceInvoice()": "1065",
				"recovery(address,uint256)": "infinite",
				"reserve()": "1042",
				"seller()": "1061",
				"waitOfPay(address,uint256)": "infinite",
				"withdrawProfit(address,uint256)": "infinite"
			},
			"internal": {
				"_accumulated(uint256)": "infinite",
				"_withdraw(uint256,address payable)": "infinite"
			}
		},
		"methodIdentifiers": {
			"activated(uint256)": "32fad9d8",
			"amount()": "aa8c217c",
			"balanceOf()": "722713f7",
			"buyer()": "7150d8ae",
			"dayMaxOfSaleInvoice()": "6849ef83",
			"daysOutstandingFactoring()": "db582a12",
			"description()": "7284e416",
			"factor()": "54f703f8",
			"factoringFee()": "334f6a6b",
			"feePerDay()": "72cb3e82",
			"fundingEvent(address,uint256)": "9c57200a",
			"nonceInvoice()": "78bac3bc",
			"recovery(address,uint256)": "3fb0971b",
			"reserve()": "cd3293de",
			"seller()": "08551a53",
			"waitOfPay(address,uint256)": "e5b58e61",
			"withdrawProfit(address,uint256)": "d35c9a07"
		}
	},
	"abi": [
		{
			"inputs": [
				{
					"internalType": "address payable",
					"name": "_seller",
					"type": "address"
				},
				{
					"internalType": "address payable",
					"name": "_factor",
					"type": "address"
				},
				{
					"internalType": "address payable",
					"name": "_buyer",
					"type": "address"
				},
				{
					"internalType": "uint256",
					"name": "_nonceInvoice",
					"type": "uint256"
				},
				{
					"internalType": "uint256",
					"name": "_amount",
					"type": "uint256"
				},
				{
					"internalType": "uint256",
					"name": "_reserve",
					"type": "uint256"
				},
				{
					"internalType": "uint256",
					"name": "_dayMaxOfSaleInvoice",
					"type": "uint256"
				},
				{
					"internalType": "uint256",
					"name": "_daysOutstandingFactoring",
					"type": "uint256"
				},
				{
					"internalType": "uint256",
					"name": "_factoringFee",
					"type": "uint256"
				},
				{
					"internalType": "uint256",
					"name": "_feePerDay",
					"type": "uint256"
				}
			],
			"stateMutability": "nonpayable",
			"type": "constructor"
		},
		{
			"anonymous": false,
			"inputs": [
				{
					"indexed": true,
					"internalType": "address",
					"name": "from",
					"type": "address"
				},
				{
					"indexed": true,
					"internalType": "address",
					"name": "to",
					"type": "address"
				},
				{
					"indexed": true,
					"internalType": "uint256",
					"name": "amount",
					"type": "uint256"
				}
			],
			"name": "Payed",
			"type": "event"
		},
		{
			"inputs": [
				{
					"internalType": "uint256",
					"name": "",
					"type": "uint256"
				}
			],
			"name": "activated",
			"outputs": [
				{
					"internalType": "bool",
					"name": "",
					"type": "bool"
				}
			],
			"stateMutability": "view",
			"type": "function"
		},
		{
			"inputs": [],
			"name": "amount",
			"outputs": [
				{
					"internalType": "uint256",
					"name": "",
					"type": "uint256"
				}
			],
			"stateMutability": "view",
			"type": "function"
		},
		{
			"inputs": [],
			"name": "balanceOf",
			"outputs": [
				{
					"internalType": "uint256",
					"name": "",
					"type": "uint256"
				}
			],
			"stateMutability": "view",
			"type": "function"
		},
		{
			"inputs": [],
			"name": "buyer",
			"outputs": [
				{
					"internalType": "address payable",
					"name": "",
					"type": "address"
				}
			],
			"stateMutability": "view",
			"type": "function"
		},
		{
			"inputs": [],
			"name": "dayMaxOfSaleInvoice",
			"outputs": [
				{
					"internalType": "uint256",
					"name": "",
					"type": "uint256"
				}
			],
			"stateMutability": "view",
			"type": "function"
		},
		{
			"inputs": [],
			"name": "daysOutstandingFactoring",
			"outputs": [
				{
					"internalType": "uint256",
					"name": "",
					"type": "uint256"
				}
			],
			"stateMutability": "view",
			"type": "function"
		},
		{
			"inputs": [],
			"name": "description",
			"outputs": [
				{
					"internalType": "string",
					"name": "",
					"type": "string"
				}
			],
			"stateMutability": "view",
			"type": "function"
		},
		{
			"inputs": [],
			"name": "factor",
			"outputs": [
				{
					"internalType": "address payable",
					"name": "",
					"type": "address"
				}
			],
			"stateMutability": "view",
			"type": "function"
		},
		{
			"inputs": [],
			"name": "factoringFee",
			"outputs": [
				{
					"internalType": "uint256",
					"name": "",
					"type": "uint256"
				}
			],
			"stateMutability": "view",
			"type": "function"
		},
		{
			"inputs": [],
			"name": "feePerDay",
			"outputs": [
				{
					"internalType": "uint256",
					"name": "",
					"type": "uint256"
				}
			],
			"stateMutability": "view",
			"type": "function"
		},
		{
			"inputs": [
				{
					"internalType": "address payable",
					"name": "_factor",
					"type": "address"
				},
				{
					"internalType": "uint256",
					"name": "_value",
					"type": "uint256"
				}
			],
			"name": "fundingEvent",
			"outputs": [],
			"stateMutability": "nonpayable",
			"type": "function"
		},
		{
			"inputs": [],
			"name": "nonceInvoice",
			"outputs": [
				{
					"internalType": "uint256",
					"name": "",
					"type": "uint256"
				}
			],
			"stateMutability": "view",
			"type": "function"
		},
		{
			"inputs": [
				{
					"internalType": "address payable",
					"name": "_factor",
					"type": "address"
				},
				{
					"internalType": "uint256",
					"name": "_amount",
					"type": "uint256"
				}
			],
			"name": "recovery",
			"outputs": [],
			"stateMutability": "nonpayable",
			"type": "function"
		},
		{
			"inputs": [],
			"name": "reserve",
			"outputs": [
				{
					"internalType": "uint256",
					"name": "",
					"type": "uint256"
				}
			],
			"stateMutability": "view",
			"type": "function"
		},
		{
			"inputs": [],
			"name": "seller",
			"outputs": [
				{
					"internalType": "address payable",
					"name": "",
					"type": "address"
				}
			],
			"stateMutability": "view",
			"type": "function"
		},
		{
			"inputs": [
				{
					"internalType": "address payable",
					"name": "_buyer",
					"type": "address"
				},
				{
					"internalType": "uint256",
					"name": "_value",
					"type": "uint256"
				}
			],
			"name": "waitOfPay",
			"outputs": [],
			"stateMutability": "nonpayable",
			"type": "function"
		},
		{
			"inputs": [
				{
					"internalType": "address payable",
					"name": "_factor",
					"type": "address"
				},
				{
					"internalType": "uint256",
					"name": "_amount",
					"type": "uint256"
				}
			],
			"name": "withdrawProfit",
			"outputs": [],
			"stateMutability": "nonpayable",
			"type": "function"
		},
		{
			"stateMutability": "payable",
			"type": "receive"
		}
	]
}