{
  "contractName": "Wallet",
  "abi": [
    {
      "inputs": [],
      "stateMutability": "nonpayable",
      "type": "constructor"
    },
    {
      "anonymous": false,
      "inputs": [
        {
          "indexed": true,
          "internalType": "address",
          "name": "previousOwner",
          "type": "address"
        },
        {
          "indexed": true,
          "internalType": "address",
          "name": "newOwner",
          "type": "address"
        }
      ],
      "name": "OwnershipTransferred",
      "type": "event"
    },
    {
      "inputs": [
        {
          "internalType": "uint256",
          "name": "",
          "type": "uint256"
        }
      ],
      "name": "_contractOfFactorings",
      "outputs": [
        {
          "internalType": "address",
          "name": "",
          "type": "address"
        }
      ],
      "stateMutability": "view",
      "type": "function",
      "constant": true
    },
    {
      "inputs": [],
      "name": "admin",
      "outputs": [
        {
          "internalType": "address",
          "name": "",
          "type": "address"
        }
      ],
      "stateMutability": "view",
      "type": "function",
      "constant": true
    },
    {
      "inputs": [
        {
          "internalType": "uint256",
          "name": "",
          "type": "uint256"
        }
      ],
      "name": "debts",
      "outputs": [
        {
          "internalType": "uint256",
          "name": "",
          "type": "uint256"
        }
      ],
      "stateMutability": "view",
      "type": "function",
      "constant": true
    },
    {
      "inputs": [],
      "name": "owner",
      "outputs": [
        {
          "internalType": "address",
          "name": "",
          "type": "address"
        }
      ],
      "stateMutability": "view",
      "type": "function",
      "constant": true
    },
    {
      "inputs": [],
      "name": "renounceOwnership",
      "outputs": [],
      "stateMutability": "nonpayable",
      "type": "function"
    },
    {
      "inputs": [],
      "name": "token",
      "outputs": [
        {
          "internalType": "contract Token",
          "name": "",
          "type": "address"
        }
      ],
      "stateMutability": "view",
      "type": "function",
      "constant": true
    },
    {
      "inputs": [
        {
          "internalType": "uint256",
          "name": "",
          "type": "uint256"
        }
      ],
      "name": "tokens",
      "outputs": [
        {
          "internalType": "address payable",
          "name": "",
          "type": "address"
        }
      ],
      "stateMutability": "view",
      "type": "function",
      "constant": true
    },
    {
      "inputs": [
        {
          "internalType": "address",
          "name": "newOwner",
          "type": "address"
        }
      ],
      "name": "transferOwnership",
      "outputs": [],
      "stateMutability": "nonpayable",
      "type": "function"
    },
    {
      "inputs": [
        {
          "internalType": "address",
          "name": "_newAdmin",
          "type": "address"
        }
      ],
      "name": "transferAdminship",
      "outputs": [],
      "stateMutability": "nonpayable",
      "type": "function"
    },
    {
      "inputs": [
        {
          "internalType": "address payable",
          "name": "_factor",
          "type": "address"
        },
        {
          "internalType": "address payable",
          "name": "_buyer",
          "type": "address"
        },
        {
          "internalType": "uint256",
          "name": "_nonceInvoice",
          "type": "uint256"
        },
        {
          "internalType": "uint256",
          "name": "_amount",
          "type": "uint256"
        },
        {
          "internalType": "uint256",
          "name": "_reserve",
          "type": "uint256"
        },
        {
          "internalType": "uint256",
          "name": "_dayMaxOfSaleInvoice",
          "type": "uint256"
        },
        {
          "internalType": "uint256",
          "name": "_daysOutstandingFactoring",
          "type": "uint256"
        },
        {
          "internalType": "uint256",
          "name": "_factoringFee",
          "type": "uint256"
        },
        {
          "internalType": "uint256",
          "name": "_feePerDay",
          "type": "uint256"
        }
      ],
      "name": "uploadDeal",
      "outputs": [],
      "stateMutability": "nonpayable",
      "type": "function"
    },
    {
      "inputs": [],
      "name": "getNumberOfTokens",
      "outputs": [
        {
          "internalType": "uint256",
          "name": "",
          "type": "uint256"
        }
      ],
      "stateMutability": "view",
      "type": "function",
      "constant": true
    },
    {
      "inputs": [],
      "name": "destroy",
      "outputs": [],
      "stateMutability": "nonpayable",
      "type": "function"
    },
    {
      "inputs": [
        {
          "internalType": "uint256",
          "name": "_id",
          "type": "uint256"
        }
      ],
      "name": "setFundingEvent",
      "outputs": [],
      "stateMutability": "payable",
      "type": "function",
      "payable": true
    },
    {
      "inputs": [
        {
          "internalType": "uint256",
          "name": "_id",
          "type": "uint256"
        }
      ],
      "name": "setWaitOfPay",
      "outputs": [],
      "stateMutability": "payable",
      "type": "function",
      "payable": true
    },
    {
      "inputs": [
        {
          "internalType": "uint256",
          "name": "_id",
          "type": "uint256"
        },
        {
          "internalType": "uint256",
          "name": "_amount",
          "type": "uint256"
        }
      ],
      "name": "setWithdrawProfit",
      "outputs": [],
      "stateMutability": "nonpayable",
      "type": "function"
    },
    {
      "inputs": [
        {
          "internalType": "uint256",
          "name": "_id",
          "type": "uint256"
        },
        {
          "internalType": "uint256",
          "name": "_amount",
          "type": "uint256"
        }
      ],
      "name": "setRecovery",
      "outputs": [],
      "stateMutability": "nonpayable",
      "type": "function"
    },
    {
      "inputs": [
        {
          "internalType": "uint256",
          "name": "_id",
          "type": "uint256"
        }
      ],
      "name": "getFundingEvent",
      "outputs": [
        {
          "internalType": "bool",
          "name": "",
          "type": "bool"
        }
      ],
      "stateMutability": "nonpayable",
      "type": "function"
    },
    {
      "inputs": [
        {
          "internalType": "uint256",
          "name": "_id",
          "type": "uint256"
        }
      ],
      "name": "getWaitOfPay",
      "outputs": [
        {
          "internalType": "bool",
          "name": "",
          "type": "bool"
        }
      ],
      "stateMutability": "nonpayable",
      "type": "function"
    },
    {
      "inputs": [
        {
          "internalType": "uint256",
          "name": "_id",
          "type": "uint256"
        }
      ],
      "name": "getSeller",
      "outputs": [
        {
          "internalType": "address",
          "name": "",
          "type": "address"
        }
      ],
      "stateMutability": "nonpayable",
      "type": "function"
    },
    {
      "inputs": [
        {
          "internalType": "uint256",
          "name": "_id",
          "type": "uint256"
        }
      ],
      "name": "getFactor",
      "outputs": [
        {
          "internalType": "address",
          "name": "",
          "type": "address"
        }
      ],
      "stateMutability": "nonpayable",
      "type": "function"
    },
    {
      "inputs": [
        {
          "internalType": "uint256",
          "name": "_id",
          "type": "uint256"
        }
      ],
      "name": "getBuyer",
      "outputs": [
        {
          "internalType": "address",
          "name": "",
          "type": "address"
        }
      ],
      "stateMutability": "nonpayable",
      "type": "function"
    },
    {
      "inputs": [
        {
          "internalType": "uint256",
          "name": "_id",
          "type": "uint256"
        }
      ],
      "name": "getNonceInvoice",
      "outputs": [
        {
          "internalType": "uint256",
          "name": "",
          "type": "uint256"
        }
      ],
      "stateMutability": "nonpayable",
      "type": "function"
    },
    {
      "inputs": [
        {
          "internalType": "uint256",
          "name": "_id",
          "type": "uint256"
        }
      ],
      "name": "getAmount",
      "outputs": [
        {
          "internalType": "uint256",
          "name": "",
          "type": "uint256"
        }
      ],
      "stateMutability": "nonpayable",
      "type": "function"
    },
    {
      "inputs": [
        {
          "internalType": "uint256",
          "name": "_id",
          "type": "uint256"
        }
      ],
      "name": "getReserve",
      "outputs": [
        {
          "internalType": "uint256",
          "name": "",
          "type": "uint256"
        }
      ],
      "stateMutability": "nonpayable",
      "type": "function"
    },
    {
      "inputs": [
        {
          "internalType": "uint256",
          "name": "_id",
          "type": "uint256"
        }
      ],
      "name": "getInitialFunding",
      "outputs": [
        {
          "internalType": "uint256",
          "name": "",
          "type": "uint256"
        }
      ],
      "stateMutability": "nonpayable",
      "type": "function"
    },
    {
      "inputs": [
        {
          "internalType": "uint256",
          "name": "_id",
          "type": "uint256"
        }
      ],
      "name": "getDaysOutstandingFactoring",
      "outputs": [
        {
          "internalType": "uint256",
          "name": "",
          "type": "uint256"
        }
      ],
      "stateMutability": "nonpayable",
      "type": "function"
    },
    {
      "inputs": [
        {
          "internalType": "uint256",
          "name": "_id",
          "type": "uint256"
        }
      ],
      "name": "getDayMaxOfSaleInvoice",
      "outputs": [
        {
          "internalType": "uint256",
          "name": "",
          "type": "uint256"
        }
      ],
      "stateMutability": "nonpayable",
      "type": "function"
    },
    {
      "inputs": [
        {
          "internalType": "uint256",
          "name": "_id",
          "type": "uint256"
        }
      ],
      "name": "getFactoringFee",
      "outputs": [
        {
          "internalType": "uint256",
          "name": "",
          "type": "uint256"
        }
      ],
      "stateMutability": "nonpayable",
      "type": "function"
    },
    {
      "inputs": [
        {
          "internalType": "uint256",
          "name": "_id",
          "type": "uint256"
        }
      ],
      "name": "getFeePerDay",
      "outputs": [
        {
          "internalType": "uint256",
          "name": "",
          "type": "uint256"
        }
      ],
      "stateMutability": "nonpayable",
      "type": "function"
    },
    {
      "inputs": [
        {
          "internalType": "uint256",
          "name": "_id",
          "type": "uint256"
        }
      ],
      "name": "getDescription",
      "outputs": [
        {
          "internalType": "string",
          "name": "",
          "type": "string"
        }
      ],
      "stateMutability": "nonpayable",
      "type": "function"
    },
    {
      "inputs": [
        {
          "internalType": "uint256",
          "name": "_id",
          "type": "uint256"
        }
      ],
      "name": "getBalanceToken",
      "outputs": [
        {
          "internalType": "uint256",
          "name": "",
          "type": "uint256"
        }
      ],
      "stateMutability": "view",
      "type": "function",
      "constant": true
    }
  ],
  "bytecode": "0x60806040523480156200001157600080fd5b506000620000246200011860201b60201c565b9050806000806101000a81548173ffffffffffffffffffffffffffffffffffffffff021916908373ffffffffffffffffffffffffffffffffffffffff1602179055508073ffffffffffffffffffffffffffffffffffffffff16600073ffffffffffffffffffffffffffffffffffffffff167f8be0079c531659141344cd1fd0a4f28419497f9722a3daafe3b4186f6b6457e060405160405180910390a350620000d26200012060201b60201c565b600160006101000a81548173ffffffffffffffffffffffffffffffffffffffff021916908373ffffffffffffffffffffffffffffffffffffffff16021790555062000149565b600033905090565b60008060009054906101000a900473ffffffffffffffffffffffffffffffffffffffff16905090565b61466380620001596000396000f3fe608060405260043610620002065760003560e01c80637d18aebb116200011b578063ba5e979a11620000a3578063efeecb51116200006d578063efeecb511462000bc0578063f2fde38b1462000bee578063f851a4401462000c43578063fc0c546a1462000c9d5762000206565b8063ba5e979a1462000a48578063d6a9de511462000a9b578063de66649e1462000b1a578063e267c0e71462000b6d5762000206565b8063888e788311620000e5578063888e788314620008ff5780638da5cb5b1462000952578063946c5feb14620009ac5780639980ec8614620009f55762000206565b80637d18aebb146200080a57806383197ef0146200083b57806383b86e66146200085557806385af9b3f14620008ac5762000206565b80635afc8634116200019f5780636defac5211620001695780636defac5214620007195780636e6e8a2c146200074a578063715018a6146200079d57806377778db314620007b75762000206565b80635afc8634146200056f5780635be7cc1614620005c65780635bf608b8146200061b578063645ea79b146200069a5762000206565b80634925ec5511620001e15780634925ec5514620003995780634a5b24db14620004545780634f64b2be146200049d5780635538a468146200051c5762000206565b80632027f265146200020b57806328bc744c146200028a5780633057af481462000346575b600080fd5b3480156200021857600080fd5b5062000248600480360360208110156200023157600080fd5b810190808035906020019092919050505062000cf7565b604051808273ffffffffffffffffffffffffffffffffffffffff1673ffffffffffffffffffffffffffffffffffffffff16815260200191505060405180910390f35b3480156200029757600080fd5b50620003446004803603610120811015620002b157600080fd5b81019080803573ffffffffffffffffffffffffffffffffffffffff169060200190929190803573ffffffffffffffffffffffffffffffffffffffff1690602001909291908035906020019092919080359060200190929190803590602001909291908035906020019092919080359060200190929190803590602001909291908035906020019092919050505062000e1c565b005b3480156200035357600080fd5b5062000383600480360360208110156200036c57600080fd5b810190808035906020019092919050505062001013565b6040518082815260200191505060405180910390f35b348015620003a657600080fd5b50620003d660048036036020811015620003bf57600080fd5b810190808035906020019092919050505062001138565b6040518080602001828103825283818151815260200191508051906020019080838360005b8381101562000418578082015181840152602081019050620003fb565b50505050905090810190601f168015620004465780820380516001836020036101000a031916815260200191505b509250505060405180910390f35b3480156200046157600080fd5b506200049b600480360360408110156200047a57600080fd5b81019080803590602001909291908035906020019092919050505062001321565b005b348015620004aa57600080fd5b50620004da60048036036020811015620004c357600080fd5b810190808035906020019092919050505062001465565b604051808273ffffffffffffffffffffffffffffffffffffffff1673ffffffffffffffffffffffffffffffffffffffff16815260200191505060405180910390f35b3480156200052957600080fd5b5062000559600480360360208110156200054257600080fd5b810190808035906020019092919050505062001498565b6040518082815260200191505060405180910390f35b3480156200057c57600080fd5b50620005ac600480360360208110156200059557600080fd5b8101908080359060200190929190505050620014ec565b604051808215151515815260200191505060405180910390f35b348015620005d357600080fd5b506200061960048036036020811015620005ec57600080fd5b81019080803573ffffffffffffffffffffffffffffffffffffffff1690602001909291905050506200161d565b005b3480156200062857600080fd5b5062000658600480360360208110156200064157600080fd5b81019080803590602001909291905050506200162b565b604051808273ffffffffffffffffffffffffffffffffffffffff1673ffffffffffffffffffffffffffffffffffffffff16815260200191505060405180910390f35b348015620006a757600080fd5b50620006d760048036036020811015620006c057600080fd5b810190808035906020019092919050505062001750565b604051808273ffffffffffffffffffffffffffffffffffffffff1673ffffffffffffffffffffffffffffffffffffffff16815260200191505060405180910390f35b62000748600480360360208110156200073157600080fd5b81019080803590602001909291905050506200178d565b005b3480156200075757600080fd5b5062000787600480360360208110156200077057600080fd5b8101908080359060200190929190505050620018d0565b6040518082815260200191505060405180910390f35b348015620007aa57600080fd5b50620007b5620019f5565b005b348015620007c457600080fd5b50620007f460048036036020811015620007dd57600080fd5b810190808035906020019092919050505062001b80565b6040518082815260200191505060405180910390f35b62000839600480360360208110156200082257600080fd5b810190808035906020019092919050505062001ca5565b005b3480156200084857600080fd5b506200085362001e63565b005b3480156200086257600080fd5b5062000892600480360360208110156200087b57600080fd5b810190808035906020019092919050505062001f6a565b604051808215151515815260200191505060405180910390f35b348015620008b957600080fd5b50620008e960048036036020811015620008d257600080fd5b81019080803590602001909291905050506200209b565b6040518082815260200191505060405180910390f35b3480156200090c57600080fd5b506200093c600480360360208110156200092557600080fd5b8101908080359060200190929190505050620020b3565b6040518082815260200191505060405180910390f35b3480156200095f57600080fd5b506200096a620021d8565b604051808273ffffffffffffffffffffffffffffffffffffffff1673ffffffffffffffffffffffffffffffffffffffff16815260200191505060405180910390f35b348015620009b957600080fd5b50620009f360048036036040811015620009d257600080fd5b81019080803590602001909291908035906020019092919050505062002201565b005b34801562000a0257600080fd5b5062000a326004803603602081101562000a1b57600080fd5b810190808035906020019092919050505062002345565b6040518082815260200191505060405180910390f35b34801562000a5557600080fd5b5062000a856004803603602081101562000a6e57600080fd5b81019080803590602001909291905050506200246a565b6040518082815260200191505060405180910390f35b34801562000aa857600080fd5b5062000ad86004803603602081101562000ac157600080fd5b810190808035906020019092919050505062002638565b604051808273ffffffffffffffffffffffffffffffffffffffff1673ffffffffffffffffffffffffffffffffffffffff16815260200191505060405180910390f35b34801562000b2757600080fd5b5062000b576004803603602081101562000b4057600080fd5b81019080803590602001909291905050506200275d565b6040518082815260200191505060405180910390f35b34801562000b7a57600080fd5b5062000baa6004803603602081101562000b9357600080fd5b810190808035906020019092919050505062002882565b6040518082815260200191505060405180910390f35b34801562000bcd57600080fd5b5062000bd8620029a7565b6040518082815260200191505060405180910390f35b34801562000bfb57600080fd5b5062000c416004803603602081101562000c1457600080fd5b81019080803573ffffffffffffffffffffffffffffffffffffffff169060200190929190505050620029b4565b005b34801562000c5057600080fd5b5062000c5b62002bc6565b604051808273ffffffffffffffffffffffffffffffffffffffff1673ffffffffffffffffffffffffffffffffffffffff16815260200191505060405180910390f35b34801562000caa57600080fd5b5062000cb562002bec565b604051808273ffffffffffffffffffffffffffffffffffffffff1673ffffffffffffffffffffffffffffffffffffffff16815260200191505060405180910390f35b60006004600083815260200190815260200160002060009054906101000a900473ffffffffffffffffffffffffffffffffffffffff16600260006101000a81548173ffffffffffffffffffffffffffffffffffffffff021916908373ffffffffffffffffffffffffffffffffffffffff160217905550600260009054906101000a900473ffffffffffffffffffffffffffffffffffffffff1673ffffffffffffffffffffffffffffffffffffffff166354f703f86040518163ffffffff1660e01b8152600401602060405180830381600087803b15801562000dd857600080fd5b505af115801562000ded573d6000803e3d6000fd5b505050506040513d602081101562000e0457600080fd5b81019080805190602001909291905050509050919050565b600062000e2862002c12565b8a8a8a8a8a8a8a8a8a60405162000e3f9062002c1a565b808b73ffffffffffffffffffffffffffffffffffffffff1673ffffffffffffffffffffffffffffffffffffffff1681526020018a73ffffffffffffffffffffffffffffffffffffffff1673ffffffffffffffffffffffffffffffffffffffff1681526020018973ffffffffffffffffffffffffffffffffffffffff1673ffffffffffffffffffffffffffffffffffffffff1681526020018881526020018781526020018681526020018581526020018481526020018381526020018281526020019a5050505050505050505050604051809103906000f08015801562000f29573d6000803e3d6000fd5b5090506003819080600181540180825580915050600190039060005260206000200160009091909190916101000a81548173ffffffffffffffffffffffffffffffffffffffff021916908373ffffffffffffffffffffffffffffffffffffffff16021790555060006001600380549050039050816004600083815260200190815260200160002060006101000a81548173ffffffffffffffffffffffffffffffffffffffff021916908373ffffffffffffffffffffffffffffffffffffffff16021790555080600560008b8152602001908152602001600020819055505050505050505050505050565b60006004600083815260200190815260200160002060009054906101000a900473ffffffffffffffffffffffffffffffffffffffff16600260006101000a81548173ffffffffffffffffffffffffffffffffffffffff021916908373ffffffffffffffffffffffffffffffffffffffff160217905550600260009054906101000a900473ffffffffffffffffffffffffffffffffffffffff1673ffffffffffffffffffffffffffffffffffffffff1663db582a126040518163ffffffff1660e01b8152600401602060405180830381600087803b158015620010f457600080fd5b505af115801562001109573d6000803e3d6000fd5b505050506040513d60208110156200112057600080fd5b81019080805190602001909291905050509050919050565b60606004600083815260200190815260200160002060009054906101000a900473ffffffffffffffffffffffffffffffffffffffff16600260006101000a81548173ffffffffffffffffffffffffffffffffffffffff021916908373ffffffffffffffffffffffffffffffffffffffff160217905550600260009054906101000a900473ffffffffffffffffffffffffffffffffffffffff1673ffffffffffffffffffffffffffffffffffffffff16637284e4166040518163ffffffff1660e01b8152600401600060405180830381600087803b1580156200121957600080fd5b505af11580156200122e573d6000803e3d6000fd5b505050506040513d6000823e3d601f19601f8201168201806040525060208110156200125957600080fd5b81019080805160405193929190846401000000008211156200127a57600080fd5b838201915060208201858111156200129157600080fd5b8251866001820283011164010000000082111715620012af57600080fd5b8083526020830192505050908051906020019080838360005b83811015620012e5578082015181840152602081019050620012c8565b50505050905090810190601f168015620013135780820380516001836020036101000a031916815260200191505b506040525050509050919050565b6004600083815260200190815260200160002060009054906101000a900473ffffffffffffffffffffffffffffffffffffffff16600260006101000a81548173ffffffffffffffffffffffffffffffffffffffff021916908373ffffffffffffffffffffffffffffffffffffffff160217905550600260009054906101000a900473ffffffffffffffffffffffffffffffffffffffff1673ffffffffffffffffffffffffffffffffffffffff16633fb0971b620013dd62002c12565b836040518363ffffffff1660e01b8152600401808373ffffffffffffffffffffffffffffffffffffffff1673ffffffffffffffffffffffffffffffffffffffff16815260200182815260200192505050600060405180830381600087803b1580156200144857600080fd5b505af11580156200145d573d6000803e3d6000fd5b505050505050565b60046020528060005260406000206000915054906101000a900473ffffffffffffffffffffffffffffffffffffffff1681565b60006004600083815260200190815260200160002060009054906101000a900473ffffffffffffffffffffffffffffffffffffffff1673ffffffffffffffffffffffffffffffffffffffff16319050919050565b60006004600083815260200190815260200160002060009054906101000a900473ffffffffffffffffffffffffffffffffffffffff16600260006101000a81548173ffffffffffffffffffffffffffffffffffffffff021916908373ffffffffffffffffffffffffffffffffffffffff160217905550600260009054906101000a900473ffffffffffffffffffffffffffffffffffffffff1673ffffffffffffffffffffffffffffffffffffffff166332fad9d860006040518263ffffffff1660e01b815260040180828152602001915050602060405180830381600087803b158015620015d957600080fd5b505af1158015620015ee573d6000803e3d6000fd5b505050506040513d60208110156200160557600080fd5b81019080805190602001909291905050509050919050565b6200162881620029b4565b50565b60006004600083815260200190815260200160002060009054906101000a900473ffffffffffffffffffffffffffffffffffffffff16600260006101000a81548173ffffffffffffffffffffffffffffffffffffffff021916908373ffffffffffffffffffffffffffffffffffffffff160217905550600260009054906101000a900473ffffffffffffffffffffffffffffffffffffffff1673ffffffffffffffffffffffffffffffffffffffff16637150d8ae6040518163ffffffff1660e01b8152600401602060405180830381600087803b1580156200170c57600080fd5b505af115801562001721573d6000803e3d6000fd5b505050506040513d60208110156200173857600080fd5b81019080805190602001909291905050509050919050565b600381815481106200175e57fe5b906000526020600020016000915054906101000a900473ffffffffffffffffffffffffffffffffffffffff1681565b6004600082815260200190815260200160002060009054906101000a900473ffffffffffffffffffffffffffffffffffffffff16600260006101000a81548173ffffffffffffffffffffffffffffffffffffffff021916908373ffffffffffffffffffffffffffffffffffffffff160217905550600260009054906101000a900473ffffffffffffffffffffffffffffffffffffffff1673ffffffffffffffffffffffffffffffffffffffff1663e5b58e616200184962002c12565b346040518363ffffffff1660e01b8152600401808373ffffffffffffffffffffffffffffffffffffffff1673ffffffffffffffffffffffffffffffffffffffff16815260200182815260200192505050600060405180830381600087803b158015620018b457600080fd5b505af1158015620018c9573d6000803e3d6000fd5b5050505050565b60006004600083815260200190815260200160002060009054906101000a900473ffffffffffffffffffffffffffffffffffffffff16600260006101000a81548173ffffffffffffffffffffffffffffffffffffffff021916908373ffffffffffffffffffffffffffffffffffffffff160217905550600260009054906101000a900473ffffffffffffffffffffffffffffffffffffffff1673ffffffffffffffffffffffffffffffffffffffff166372cb3e826040518163ffffffff1660e01b8152600401602060405180830381600087803b158015620019b157600080fd5b505af1158015620019c6573d6000803e3d6000fd5b505050506040513d6020811015620019dd57600080fd5b81019080805190602001909291905050509050919050565b620019ff62002c12565b73ffffffffffffffffffffffffffffffffffffffff166000809054906101000a900473ffffffffffffffffffffffffffffffffffffffff1673ffffffffffffffffffffffffffffffffffffffff161462001ac1576040517f08c379a00000000000000000000000000000000000000000000000000000000081526004018080602001828103825260208152602001807f4f776e61626c653a2063616c6c6572206973206e6f7420746865206f776e657281525060200191505060405180910390fd5b600073ffffffffffffffffffffffffffffffffffffffff166000809054906101000a900473ffffffffffffffffffffffffffffffffffffffff1673ffffffffffffffffffffffffffffffffffffffff167f8be0079c531659141344cd1fd0a4f28419497f9722a3daafe3b4186f6b6457e060405160405180910390a360008060006101000a81548173ffffffffffffffffffffffffffffffffffffffff021916908373ffffffffffffffffffffffffffffffffffffffff160217905550565b60006004600083815260200190815260200160002060009054906101000a900473ffffffffffffffffffffffffffffffffffffffff16600260006101000a81548173ffffffffffffffffffffffffffffffffffffffff021916908373ffffffffffffffffffffffffffffffffffffffff160217905550600260009054906101000a900473ffffffffffffffffffffffffffffffffffffffff1673ffffffffffffffffffffffffffffffffffffffff1663cd3293de6040518163ffffffff1660e01b8152600401602060405180830381600087803b15801562001c6157600080fd5b505af115801562001c76573d6000803e3d6000fd5b505050506040513d602081101562001c8d57600080fd5b81019080805190602001909291905050509050919050565b6004600082815260200190815260200160002060009054906101000a900473ffffffffffffffffffffffffffffffffffffffff16600260006101000a81548173ffffffffffffffffffffffffffffffffffffffff021916908373ffffffffffffffffffffffffffffffffffffffff1602179055506004600082815260200190815260200160002060009054906101000a900473ffffffffffffffffffffffffffffffffffffffff1673ffffffffffffffffffffffffffffffffffffffff166108fc349081150290604051600060405180830381858888f1935050505015801562001d93573d6000803e3d6000fd5b50600260009054906101000a900473ffffffffffffffffffffffffffffffffffffffff1673ffffffffffffffffffffffffffffffffffffffff16639c57200a62001ddc62002c12565b346040518363ffffffff1660e01b8152600401808373ffffffffffffffffffffffffffffffffffffffff1673ffffffffffffffffffffffffffffffffffffffff16815260200182815260200192505050600060405180830381600087803b15801562001e4757600080fd5b505af115801562001e5c573d6000803e3d6000fd5b5050505050565b62001e6d62002c12565b73ffffffffffffffffffffffffffffffffffffffff166000809054906101000a900473ffffffffffffffffffffffffffffffffffffffff1673ffffffffffffffffffffffffffffffffffffffff161462001f2f576040517f08c379a00000000000000000000000000000000000000000000000000000000081526004018080602001828103825260208152602001807f4f776e61626c653a2063616c6c6572206973206e6f7420746865206f776e657281525060200191505060405180910390fd5b600160009054906101000a900473ffffffffffffffffffffffffffffffffffffffff1673ffffffffffffffffffffffffffffffffffffffff16ff5b60006004600083815260200190815260200160002060009054906101000a900473ffffffffffffffffffffffffffffffffffffffff16600260006101000a81548173ffffffffffffffffffffffffffffffffffffffff021916908373ffffffffffffffffffffffffffffffffffffffff160217905550600260009054906101000a900473ffffffffffffffffffffffffffffffffffffffff1673ffffffffffffffffffffffffffffffffffffffff166332fad9d860016040518263ffffffff1660e01b815260040180828152602001915050602060405180830381600087803b1580156200205757600080fd5b505af11580156200206c573d6000803e3d6000fd5b505050506040513d60208110156200208357600080fd5b81019080805190602001909291905050509050919050565b60056020528060005260406000206000915090505481565b60006004600083815260200190815260200160002060009054906101000a900473ffffffffffffffffffffffffffffffffffffffff16600260006101000a81548173ffffffffffffffffffffffffffffffffffffffff021916908373ffffffffffffffffffffffffffffffffffffffff160217905550600260009054906101000a900473ffffffffffffffffffffffffffffffffffffffff1673ffffffffffffffffffffffffffffffffffffffff166378bac3bc6040518163ffffffff1660e01b8152600401602060405180830381600087803b1580156200219457600080fd5b505af1158015620021a9573d6000803e3d6000fd5b505050506040513d6020811015620021c057600080fd5b81019080805190602001909291905050509050919050565b60008060009054906101000a900473ffffffffffffffffffffffffffffffffffffffff16905090565b6004600083815260200190815260200160002060009054906101000a900473ffffffffffffffffffffffffffffffffffffffff16600260006101000a81548173ffffffffffffffffffffffffffffffffffffffff021916908373ffffffffffffffffffffffffffffffffffffffff160217905550600260009054906101000a900473ffffffffffffffffffffffffffffffffffffffff1673ffffffffffffffffffffffffffffffffffffffff1663d35c9a07620022bd62002c12565b836040518363ffffffff1660e01b8152600401808373ffffffffffffffffffffffffffffffffffffffff1673ffffffffffffffffffffffffffffffffffffffff16815260200182815260200192505050600060405180830381600087803b1580156200232857600080fd5b505af11580156200233d573d6000803e3d6000fd5b505050505050565b60006004600083815260200190815260200160002060009054906101000a900473ffffffffffffffffffffffffffffffffffffffff16600260006101000a81548173ffffffffffffffffffffffffffffffffffffffff021916908373ffffffffffffffffffffffffffffffffffffffff160217905550600260009054906101000a900473ffffffffffffffffffffffffffffffffffffffff1673ffffffffffffffffffffffffffffffffffffffff1663aa8c217c6040518163ffffffff1660e01b8152600401602060405180830381600087803b1580156200242657600080fd5b505af11580156200243b573d6000803e3d6000fd5b505050506040513d60208110156200245257600080fd5b81019080805190602001909291905050509050919050565b60006004600083815260200190815260200160002060009054906101000a900473ffffffffffffffffffffffffffffffffffffffff16600260006101000a81548173ffffffffffffffffffffffffffffffffffffffff021916908373ffffffffffffffffffffffffffffffffffffffff160217905550600260009054906101000a900473ffffffffffffffffffffffffffffffffffffffff1673ffffffffffffffffffffffffffffffffffffffff1663cd3293de6040518163ffffffff1660e01b8152600401602060405180830381600087803b1580156200254b57600080fd5b505af115801562002560573d6000803e3d6000fd5b505050506040513d60208110156200257757600080fd5b8101908080519060200190929190505050600260009054906101000a900473ffffffffffffffffffffffffffffffffffffffff1673ffffffffffffffffffffffffffffffffffffffff1663aa8c217c6040518163ffffffff1660e01b8152600401602060405180830381600087803b158015620025f357600080fd5b505af115801562002608573d6000803e3d6000fd5b505050506040513d60208110156200261f57600080fd5b8101908080519060200190929190505050039050919050565b60006004600083815260200190815260200160002060009054906101000a900473ffffffffffffffffffffffffffffffffffffffff16600260006101000a81548173ffffffffffffffffffffffffffffffffffffffff021916908373ffffffffffffffffffffffffffffffffffffffff160217905550600260009054906101000a900473ffffffffffffffffffffffffffffffffffffffff1673ffffffffffffffffffffffffffffffffffffffff166308551a536040518163ffffffff1660e01b8152600401602060405180830381600087803b1580156200271957600080fd5b505af11580156200272e573d6000803e3d6000fd5b505050506040513d60208110156200274557600080fd5b81019080805190602001909291905050509050919050565b60006004600083815260200190815260200160002060009054906101000a900473ffffffffffffffffffffffffffffffffffffffff16600260006101000a81548173ffffffffffffffffffffffffffffffffffffffff021916908373ffffffffffffffffffffffffffffffffffffffff160217905550600260009054906101000a900473ffffffffffffffffffffffffffffffffffffffff1673ffffffffffffffffffffffffffffffffffffffff16636849ef836040518163ffffffff1660e01b8152600401602060405180830381600087803b1580156200283e57600080fd5b505af115801562002853573d6000803e3d6000fd5b505050506040513d60208110156200286a57600080fd5b81019080805190602001909291905050509050919050565b60006004600083815260200190815260200160002060009054906101000a900473ffffffffffffffffffffffffffffffffffffffff16600260006101000a81548173ffffffffffffffffffffffffffffffffffffffff021916908373ffffffffffffffffffffffffffffffffffffffff160217905550600260009054906101000a900473ffffffffffffffffffffffffffffffffffffffff1673ffffffffffffffffffffffffffffffffffffffff1663334f6a6b6040518163ffffffff1660e01b8152600401602060405180830381600087803b1580156200296357600080fd5b505af115801562002978573d6000803e3d6000fd5b505050506040513d60208110156200298f57600080fd5b81019080805190602001909291905050509050919050565b6000600380549050905090565b620029be62002c12565b73ffffffffffffffffffffffffffffffffffffffff166000809054906101000a900473ffffffffffffffffffffffffffffffffffffffff1673ffffffffffffffffffffffffffffffffffffffff161462002a80576040517f08c379a00000000000000000000000000000000000000000000000000000000081526004018080602001828103825260208152602001807f4f776e61626c653a2063616c6c6572206973206e6f7420746865206f776e657281525060200191505060405180910390fd5b600073ffffffffffffffffffffffffffffffffffffffff168173ffffffffffffffffffffffffffffffffffffffff16141562002b08576040517f08c379a0000000000000000000000000000000000000000000000000000000008152600401808060200182810382526026815260200180620046086026913960400191505060405180910390fd5b8073ffffffffffffffffffffffffffffffffffffffff166000809054906101000a900473ffffffffffffffffffffffffffffffffffffffff1673ffffffffffffffffffffffffffffffffffffffff167f8be0079c531659141344cd1fd0a4f28419497f9722a3daafe3b4186f6b6457e060405160405180910390a3806000806101000a81548173ffffffffffffffffffffffffffffffffffffffff021916908373ffffffffffffffffffffffffffffffffffffffff16021790555050565b600160009054906101000a900473ffffffffffffffffffffffffffffffffffffffff1681565b600260009054906101000a900473ffffffffffffffffffffffffffffffffffffffff1681565b600033905090565b6119df8062002c298339019056fe60806040523480156200001157600080fd5b50604051620019df380380620019df83398181016040526101408110156200003857600080fd5b8101908080519060200190929190805190602001909291908051906020019092919080519060200190929190805190602001909291908051906020019092919080519060200190929190805190602001909291908051906020019092919080519060200190929190505050896000806101000a81548173ffffffffffffffffffffffffffffffffffffffff021916908373ffffffffffffffffffffffffffffffffffffffff16021790555088600160006101000a81548173ffffffffffffffffffffffffffffffffffffffff021916908373ffffffffffffffffffffffffffffffffffffffff16021790555087600260006101000a81548173ffffffffffffffffffffffffffffffffffffffff021916908373ffffffffffffffffffffffffffffffffffffffff160217905550866003819055508560048190555084600581905550620001a86200019685603c6200025c60201b620014691760201c565b42620002e760201b620013211760201c565b600681905550620001dc620001ca84603c6200025c60201b620014691760201c565b42620002e760201b620013211760201c565b60078190555081600881905550806009819055506000600b8190555060008090505b60028160ff1610156200024b576000600c8260ff16600281106200021e57fe5b602091828204019190066101000a81548160ff0219169083151502179055508080600101915050620001fe565b505050505050505050505062000370565b600080831415620002715760009050620002e1565b60008284029050828482816200028357fe5b0414620002dc576040517f08c379a0000000000000000000000000000000000000000000000000000000008152600401808060200182810382526021815260200180620019be6021913960400191505060405180910390fd5b809150505b92915050565b60008082840190508381101562000366576040517f08c379a000000000000000000000000000000000000000000000000000000000815260040180806020018281038252601b8152602001807f536166654d6174683a206164646974696f6e206f766572666c6f77000000000081525060200191505060405180910390fd5b8091505092915050565b61163e80620003806000396000f3fe6080604052600436106101025760003560e01c80637284e41611610095578063aa8c217c11610064578063aa8c217c14610483578063cd3293de146104ae578063d35c9a07146104d9578063db582a1214610534578063e5b58e611461055f57610109565b80637284e4161461034257806372cb3e82146103d257806378bac3bc146103fd5780639c57200a1461042857610109565b806354f703f8116100d157806354f703f81461023e5780636849ef83146102955780637150d8ae146102c0578063722713f71461031757610109565b806308551a531461010e57806332fad9d814610165578063334f6a6b146101b85780633fb0971b146101e357610109565b3661010957005b600080fd5b34801561011a57600080fd5b506101236105ba565b604051808273ffffffffffffffffffffffffffffffffffffffff1673ffffffffffffffffffffffffffffffffffffffff16815260200191505060405180910390f35b34801561017157600080fd5b5061019e6004803603602081101561018857600080fd5b81019080803590602001909291905050506105df565b604051808215151515815260200191505060405180910390f35b3480156101c457600080fd5b506101cd610606565b6040518082815260200191505060405180910390f35b3480156101ef57600080fd5b5061023c6004803603604081101561020657600080fd5b81019080803573ffffffffffffffffffffffffffffffffffffffff1690602001909291908035906020019092919050505061060c565b005b34801561024a57600080fd5b506102536107b8565b604051808273ffffffffffffffffffffffffffffffffffffffff1673ffffffffffffffffffffffffffffffffffffffff16815260200191505060405180910390f35b3480156102a157600080fd5b506102aa6107de565b6040518082815260200191505060405180910390f35b3480156102cc57600080fd5b506102d56107e4565b604051808273ffffffffffffffffffffffffffffffffffffffff1673ffffffffffffffffffffffffffffffffffffffff16815260200191505060405180910390f35b34801561032357600080fd5b5061032c61080a565b6040518082815260200191505060405180910390f35b34801561034e57600080fd5b50610357610812565b6040518080602001828103825283818151815260200191508051906020019080838360005b8381101561039757808201518184015260208101905061037c565b50505050905090810190601f1680156103c45780820380516001836020036101000a031916815260200191505b509250505060405180910390f35b3480156103de57600080fd5b506103e76108b0565b6040518082815260200191505060405180910390f35b34801561040957600080fd5b506104126108b6565b6040518082815260200191505060405180910390f35b34801561043457600080fd5b506104816004803603604081101561044b57600080fd5b81019080803573ffffffffffffffffffffffffffffffffffffffff169060200190929190803590602001909291905050506108bc565b005b34801561048f57600080fd5b50610498610b9b565b6040518082815260200191505060405180910390f35b3480156104ba57600080fd5b506104c3610ba1565b6040518082815260200191505060405180910390f35b3480156104e557600080fd5b50610532600480360360408110156104fc57600080fd5b81019080803573ffffffffffffffffffffffffffffffffffffffff16906020019092919080359060200190929190505050610ba7565b005b34801561054057600080fd5b50610549610cf4565b6040518082815260200191505060405180910390f35b34801561056b57600080fd5b506105b86004803603604081101561058257600080fd5b81019080803573ffffffffffffffffffffffffffffffffffffffff16906020019092919080359060200190929190505050610cfa565b005b6000809054906101000a900473ffffffffffffffffffffffffffffffffffffffff1681565b600c81600281106105ec57fe5b60209182820401919006915054906101000a900460ff1681565b60085481565b600c60016002811061061a57fe5b602091828204019190069054906101000a900460ff168015610687576040517f08c379a00000000000000000000000000000000000000000000000000000000081526004018080602001828103825260468152602001806115c36046913960600191505060405180910390fd5b8273ffffffffffffffffffffffffffffffffffffffff16600160009054906101000a900473ffffffffffffffffffffffffffffffffffffffff1673ffffffffffffffffffffffffffffffffffffffff161461074a576040517f08c379a000000000000000000000000000000000000000000000000000000000815260040180806020018281038252601d8152602001807f596f7520617265206e6f7420617574686f72697a656420746f2070617900000081525060200191505060405180910390fd5b600042905060065481116107a9576040517f08c379a00000000000000000000000000000000000000000000000000000000081526004018080602001828103825260408152602001806115266040913960400191505060405180910390fd5b6107b283611176565b50505050565b600160009054906101000a900473ffffffffffffffffffffffffffffffffffffffff1681565b60065481565b600260009054906101000a900473ffffffffffffffffffffffffffffffffffffffff1681565b600047905090565b600a8054600181600116156101000203166002900480601f0160208091040260200160405190810160405280929190818152602001828054600181600116156101000203166002900480156108a85780601f1061087d576101008083540402835291602001916108a8565b820191906000526020600020905b81548152906001019060200180831161088b57829003601f168201915b505050505081565b60095481565b60035481565b600c6000600281106108ca57fe5b602091828204019190069054906101000a900460ff168015610937576040517f08c379a00000000000000000000000000000000000000000000000000000000081526004018080602001828103825260468152602001806115c36046913960600191505060405180910390fd5b8273ffffffffffffffffffffffffffffffffffffffff16600160009054906101000a900473ffffffffffffffffffffffffffffffffffffffff1673ffffffffffffffffffffffffffffffffffffffff16146109fa576040517f08c379a000000000000000000000000000000000000000000000000000000000815260040180806020018281038252601d8152602001807f596f7520617265206e6f7420617574686f72697a656420746f2070617900000081525060200191505060405180910390fd5b8160045414610a54576040517f08c379a00000000000000000000000000000000000000000000000000000000081526004018080602001828103825260368152602001806114f06036913960400191505060405180910390fd5b6000809054906101000a900473ffffffffffffffffffffffffffffffffffffffff1673ffffffffffffffffffffffffffffffffffffffff166108fc610a9d6004546005546112b4565b9081150290604051600060405180830381858888f19350505050158015610ac8573d6000803e3d6000fd5b506001600c600060028110610ad957fe5b602091828204019190066101000a81548160ff021916908315150217905550816000809054906101000a900473ffffffffffffffffffffffffffffffffffffffff1673ffffffffffffffffffffffffffffffffffffffff16600160009054906101000a900473ffffffffffffffffffffffffffffffffffffffff1673ffffffffffffffffffffffffffffffffffffffff167f51a1a06191430448721e292133222a18764e814e7470bbadccf67416cfd081f560405160405180910390a4505050565b60045481565b60055481565b600c600160028110610bb557fe5b602091828204019190069054906101000a900460ff16158015610c23576040517f08c379a00000000000000000000000000000000000000000000000000000000081526004018080602001828103825260468152602001806115c36046913960600191505060405180910390fd5b8273ffffffffffffffffffffffffffffffffffffffff16600160009054906101000a900473ffffffffffffffffffffffffffffffffffffffff1673ffffffffffffffffffffffffffffffffffffffff1614610ce6576040517f08c379a000000000000000000000000000000000000000000000000000000000815260040180806020018281038252601d8152602001807f596f7520617265206e6f7420617574686f72697a656420746f2070617900000081525060200191505060405180910390fd5b610cef82611176565b505050565b60075481565b600c600060028110610d0857fe5b602091828204019190069054906101000a900460ff16158015610d76576040517f08c379a00000000000000000000000000000000000000000000000000000000081526004018080602001828103825260468152602001806115c36046913960600191505060405180910390fd5b600c600160028110610d8457fe5b602091828204019190069054906101000a900460ff168015610df1576040517f08c379a00000000000000000000000000000000000000000000000000000000081526004018080602001828103825260468152602001806115c36046913960600191505060405180910390fd5b8373ffffffffffffffffffffffffffffffffffffffff16600260009054906101000a900473ffffffffffffffffffffffffffffffffffffffff1673ffffffffffffffffffffffffffffffffffffffff1614610eb4576040517f08c379a000000000000000000000000000000000000000000000000000000000815260040180806020018281038252601d8152602001807f596f7520617265206e6f7420617574686f72697a656420746f2070617900000081525060200191505060405180910390fd5b6000429050600654811115610f31576040517f08c379a00000000000000000000000000000000000000000000000000000000081526004018080602001828103825260188152602001807f546f6b656e20686173206265656e20657870697261746564000000000000000081525060200191505060405180910390fd5b8360045414610f8b576040517f08c379a000000000000000000000000000000000000000000000000000000000815260040180806020018281038252603c815260200180611587603c913960400191505060405180910390fd5b60006005549050600160009054906101000a900473ffffffffffffffffffffffffffffffffffffffff1673ffffffffffffffffffffffffffffffffffffffff166108fc869081150290604051600060405180830381858888f19350505050158015610ffa573d6000803e3d6000fd5b50600754821161101757611010816008546112b4565b905061105b565b6007548211801561102a57506006548211155b156110555761104e816110496008546110446009546112fe565b611321565b6112b4565b905061105a565b600080fd5b5b6000809054906101000a900473ffffffffffffffffffffffffffffffffffffffff1673ffffffffffffffffffffffffffffffffffffffff166108fc829081150290604051600060405180830381858888f193505050501580156110c2573d6000803e3d6000fd5b50806000809054906101000a900473ffffffffffffffffffffffffffffffffffffffff1673ffffffffffffffffffffffffffffffffffffffff163073ffffffffffffffffffffffffffffffffffffffff167f51a1a06191430448721e292133222a18764e814e7470bbadccf67416cfd081f560405160405180910390a46001600c60016002811061114f57fe5b602091828204019190066101000a81548160ff021916908315150217905550505050505050565b600160009054906101000a900473ffffffffffffffffffffffffffffffffffffffff163373ffffffffffffffffffffffffffffffffffffffff168173ffffffffffffffffffffffffffffffffffffffff161461123a576040517f08c379a000000000000000000000000000000000000000000000000000000000815260040180806020018281038252601d8152602001807f596f7520617265206e6f7420617574686f72697a656420746f2070617900000081525060200191505060405180910390fd5b4782111561124757600080fd5b600160009054906101000a900473ffffffffffffffffffffffffffffffffffffffff1673ffffffffffffffffffffffffffffffffffffffff166108fc839081150290604051600060405180830381858888f193505050501580156112af573d6000803e3d6000fd5b505050565b60006112f683836040518060400160405280601e81526020017f536166654d6174683a207375627472616374696f6e206f766572666c6f7700008152506113a9565b905092915050565b60008061130d426007546112b4565b90506113198184611469565b915050919050565b60008082840190508381101561139f576040517f08c379a000000000000000000000000000000000000000000000000000000000815260040180806020018281038252601b8152602001807f536166654d6174683a206164646974696f6e206f766572666c6f77000000000081525060200191505060405180910390fd5b8091505092915050565b6000838311158290611456576040517f08c379a00000000000000000000000000000000000000000000000000000000081526004018080602001828103825283818151815260200191508051906020019080838360005b8381101561141b578082015181840152602081019050611400565b50505050905090810190601f1680156114485780820380516001836020036101000a031916815260200191505b509250505060405180910390fd5b5060008385039050809150509392505050565b60008083141561147c57600090506114e9565b600082840290508284828161148d57fe5b04146114e4576040517f08c379a00000000000000000000000000000000000000000000000000000000081526004018080602001828103825260218152602001806115666021913960400191505060405180910390fd5b809150505b9291505056fe5468652076616c7565207468617420796f752074727920746f207472616e73666572206e6f74206d617463682077697468206465616c596f752063616e2774207265636569766520616e797468696e6720636f757365207374696c6c20696e20666f726365207468652072616e6765206f6620706179536166654d6174683a206d756c7469706c69636174696f6e206f766572666c6f7754686520616d6f756e74206e6f74206d617463682077697468207468652076616c7565207468617420796f752074727920746f207472616e73666572546861742066756e6374696f6e20686173206265656e20657865637574656420796574206f7220697473206470656e64656e636520686173206265656e206578656375746564a2646970667358221220772b864c092f1c11122969813e658f2911b793a6bf751ef99ab65a5dc181cc5b64736f6c63430006020033536166654d6174683a206d756c7469706c69636174696f6e206f766572666c6f774f776e61626c653a206e6577206f776e657220697320746865207a65726f2061646472657373a26469706673582212207c1c71251e6784933570024fe121ae9e4e291cc46aa69448c81c27610ae3b7f364736f6c63430006020033",
  "source": "pragma solidity ^0.6.2;\r\n\r\nimport \"./Ownable.sol\";\r\nimport \"./ContractOfFactoring.sol\";\r\n\r\n/**\r\n * @title Wallet\r\n * @author Pedro Machado\r\n * @notice Reservas ERP can manager and controller the\r\n * inputs/outputs Tx from clients and routing the amount to recipients. \r\n * The wallet aim to SC Contract of Factorings address.  \r\n   \r\n * @dev Each input of finance data can be in wei unit.  \r\n*/\r\n\r\n/**\r\n *@dev This code represents a ContractOfFactoring's interface to can comunicate\r\n *with the smart contract deployed and living on the blockchain. \r\n */\r\ninterface Token {\r\n    function seller() external returns(address);//Return seller from the token to aim. \r\n    function factor() external returns(address);//Return factor from the token to aim.\r\n    function buyer() external returns(address);//Return buyer from the token to aim.\r\n    function nonceInvoice() external returns(uint256); //Return token's invoice number from the token to aim.\r\n    function amount() external returns(uint256);//Return net value of the pay to withdrawal for the factor.\r\n    function reserve() external returns(uint256); //Return value of Factor's reserve. \r\n    function dayMaxOfSaleInvoice() external returns(uint256);//Return day maximum of sale invoice.\r\n    function daysOutstandingFactoring() external returns(uint256); //Return day outstanding factoring.\r\n    function factoringFee() external returns(uint256);//Return factoring fee along to day outstanding factoring.\r\n    function feePerDay() external returns(uint256);//Return factoring fee per day after expirated day outstanding factoring.\r\n    function description() external returns(string memory);// Return description of deal.\r\n    function fundingEvent(address _factor, uint256 _value) external;//Called Token's fundingEvent() function, just Token's Factor can do it.   \r\n    function waitOfPay(address _buyer, uint256 _value) external;//Called Token's waitOfPay() function, just Token's Buyer can do it.\r\n    function withdrawProfit(address _factor, uint256 _amount) external;//Called Token's withdrawProfit(), just Token's Factor can do it.\r\n    function recovery(address _factor, uint256 _amount) external;//Called Token's recovery() function , just Token's factor can do it.\r\n    function activated(uint256 _numFunction) external returns(bool);//Returns the token's state. \"if was pay or not\".\r\n\r\n} \r\n/**\r\n *@dev This is the main contract called Wallet.\r\n */\r\ncontract Wallet is Ownable {\r\n    address public admin;//This address represents the user authorized to execute changes into a system. \r\n    Token public token;//Aim to interface.\r\n    address[]  public _contractOfFactorings;//Count the number of tokens uploaded to blockchain.\r\n    mapping (uint256 => address payable) public tokens;//Returns the token's address linked with his token's id. \r\n    mapping (uint => uint) public debts;//Returns wich tokens linkeding with one invoice. \r\n\r\n    /**\r\n     *@dev The Wallet's constructor to initialized the contract. \r\n     */\r\n    constructor() public {\r\n        admin = owner();\r\n    }\r\n\r\n    /**\r\n     *@notice The next group of functions response to Wallet's scope. \r\n     */\r\n\r\n    /**\r\n     *@dev Transfer the power of this system to another person.  \r\n     */\r\n    function transferAdminship(address _newAdmin) external {\r\n        transferOwnership(_newAdmin);\r\n    }\r\n\r\n    /**\r\n     *@dev This function is a factory of tokens. She make one ContractOfFactoring smart contract with each call,\r\n     *getting the token's address , save it into an array and a mapping and upload to blockcahin. \r\n     *It's my favorite :)\r\n     */\r\n    function uploadDeal(\r\n        address payable _factor, \r\n        address payable _buyer,\r\n        uint256 _nonceInvoice,\r\n        uint256 _amount,\r\n        uint256 _reserve,\r\n        uint256 _dayMaxOfSaleInvoice,\r\n        uint256 _daysOutstandingFactoring,\r\n        uint256 _factoringFee,\r\n        uint256 _feePerDay) external {\r\n            ContractOfFactoring contractOfFactoring = new ContractOfFactoring(\r\n                _msgSender(),       \r\n                _factor, \r\n                _buyer,\r\n                _nonceInvoice,\r\n                _amount,\r\n                _reserve,\r\n                _dayMaxOfSaleInvoice,\r\n                _daysOutstandingFactoring,\r\n                _factoringFee,\r\n                _feePerDay\r\n            );\r\n        _contractOfFactorings.push(address(contractOfFactoring));\r\n        uint id = _contractOfFactorings.length - 1;\r\n        tokens[id] = address(contractOfFactoring);\r\n        debts[_nonceInvoice] = id;\r\n    }\r\n\r\n    /**\r\n     *@dev Returns the number of tokens upload to blockchain\r\n     */\r\n    function getNumberOfTokens() external view returns(uint256) {\r\n        return _contractOfFactorings.length;\r\n    }\r\n\r\n    /**\r\n     *@dev This function delete the Wallet contract from the blockchain.\r\n     */\r\n    function destroy() external onlyOwner() {\r\n        selfdestruct(payable(admin));\r\n    }\r\n\r\n    /**\r\n     *@notice The next group of functions response to Token's Interface. \r\n     *@dev Declaration of function setters. The next group of functions change the state of blockchain,\r\n     *calling one token's function to pay or witdraw.   \r\n     */\r\n\r\n     /**\r\n      *@dev Call fundingEvent() function from the token that aim to id argument. \r\n      */\r\n    function setFundingEvent(uint256 _id) external payable {\r\n        token = Token(tokens[_id]);\r\n        tokens[_id].transfer(msg.value);\r\n        token.fundingEvent(_msgSender(), msg.value);\r\n    }\r\n\r\n    /**\r\n      *@dev Call waitOfPay() function from the token that aim to id argument. \r\n      */\r\n    function setWaitOfPay(uint256 _id) external payable {\r\n        token = Token(tokens[_id]);\r\n        token.waitOfPay(_msgSender(), msg.value);\r\n    }\r\n\r\n    /**\r\n      *@dev Call withdrawProfit(_amount) function from the token that aim to id argument. \r\n      */\r\n    function setWithdrawProfit(uint256 _id, uint256 _amount) external {\r\n        token = Token(tokens[_id]);\r\n        token.withdrawProfit(_msgSender(), _amount);\r\n    }\r\n\r\n    /**\r\n      *@dev Call recovery(_amount) function from the token that aim to id argument. \r\n      */\r\n    function setRecovery(uint256 _id, uint256 _amount) external {\r\n        token = Token(tokens[_id]);\r\n        token.recovery(_msgSender(), _amount);\r\n    }\r\n\r\n    /**\r\n     *@dev Declaration of function getters. The next group of functions doesn't change the state of blockchain,\r\n     *just call one token's function to know its state it.   \r\n     */\r\n\r\n    /**\r\n     *@dev Returns function fundingEvent()'s state from one token that response to an id. \r\n     */  \r\n    function getFundingEvent(uint256 _id) external returns(bool) {\r\n        token = Token(tokens[_id]);\r\n        return token.activated(0);\r\n    }\r\n\r\n    /**\r\n     *@dev Returns function WaitOfPay()'s state from one token that response to an id. If the result is true, \r\n     *it means that contract has been paid.  \r\n     */\r\n    function getWaitOfPay(uint256 _id) external returns(bool) {\r\n        token = Token(tokens[_id]);\r\n        return token.activated(1);\r\n    }\r\n\r\n    /**\r\n     *@dev Returns Seller from one token that response to an id.\r\n     */\r\n    function getSeller(uint256 _id) external returns(address) {\r\n        token = Token(tokens[_id]);\r\n        return token.seller();\r\n    }\r\n\r\n    /**\r\n     *@dev Returns Factor from one token that response to an id.\r\n     */\r\n    function getFactor(uint256 _id) external returns(address) {\r\n        token = Token(tokens[_id]);\r\n        return token.factor();\r\n    }\r\n\r\n    /**\r\n     *@dev Returns Buyer from one token that response to an id.\r\n     */\r\n    function getBuyer(uint256 _id) external returns(address) {\r\n        token = Token(tokens[_id]);\r\n        return token.buyer();\r\n    }\r\n\r\n    /**\r\n     *@dev Returns nonceInvoice from one token that response to an id.\r\n     */\r\n    function getNonceInvoice(uint256 _id) external returns(uint256) {\r\n        token = Token(tokens[_id]);\r\n        return token.nonceInvoice();        \r\n    }\r\n\r\n    /**\r\n     *@dev Returns Amount from one token that response to an id.\r\n     */\r\n    function getAmount(uint256 _id) external returns(uint256) {\r\n        token = Token(tokens[_id]);\r\n        return token.amount();\r\n    }\r\n\r\n    /**\r\n     *@dev Returns reserve from one token that response to an id.\r\n     */\r\n    function getReserve(uint256 _id) external returns(uint256) {\r\n        token = Token(tokens[_id]);\r\n        return token.reserve();\r\n    }\r\n\r\n    /**\r\n     *@dev Returns initial funding from one token that response to an id.\r\n     */\r\n    function getInitialFunding(uint256 _id) external returns(uint256) {\r\n        token = Token(tokens[_id]);\r\n        return token.amount() - token.reserve();\r\n    }\r\n\r\n    /**\r\n     *@dev Returns daysOutstandingFactoring() from one token that response to an id.\r\n     */\r\n    function getDaysOutstandingFactoring(uint256 _id) external returns(uint256) {\r\n        token = Token(tokens[_id]);\r\n        return token.daysOutstandingFactoring();\r\n    }\r\n\r\n    /**\r\n     *@dev Returns dayMaxOfSaleInvoice() from one token that response to an id.\r\n     */\r\n    function getDayMaxOfSaleInvoice(uint256 _id) external returns(uint256) {\r\n        token = Token(tokens[_id]);\r\n        return token.dayMaxOfSaleInvoice();\r\n    }\r\n\r\n    /**\r\n     *@dev Returns factoringFee() from one token that response to an id.\r\n     */\r\n    function getFactoringFee(uint256 _id) external returns(uint256) {\r\n        token = Token(tokens[_id]);\r\n        return token.factoringFee();\r\n    }\r\n\r\n    /**\r\n     *@dev Returns feePerDay() from one token that response to an id.\r\n     */\r\n    function getFeePerDay(uint256 _id) external returns(uint256) {\r\n        token = Token(tokens[_id]);\r\n        return token.feePerDay();\r\n    }\r\n\r\n    /**\r\n     *@dev Returns description() from one token that response to an id.\r\n     */\r\n    function getDescription(uint _id) external returns(string memory) {\r\n        token = Token(tokens[_id]);\r\n        return token.description();\r\n    }\r\n    \r\n    /**\r\n     *@dev Returns balance of token that response to an id.\r\n     */\r\n    function getBalanceToken(uint _id) external view returns(uint256) {\r\n        return address(tokens[_id]).balance;\r\n    }   \r\n}",
  "sourcePath": "D:/Trabajo/0-Reservafs/Proyectos/Wallet/contracts/Wallet.sol",
  "compiler": {
    "name": "solc",
    "version": "0.6.2+commit.bacdbe57.Emscripten.clang"
  },
  "schemaVersion": "3.3.4",
  "updatedAt": "2021-04-15T21:43:13.180Z",
  "networkType": "ethereum",
  "devdoc": {
    "methods": {
      "owner()": {
        "details": "Returns the address of the current owner."
      },
      "renounceOwnership()": {
        "details": "Leaves the contract without owner. It will not be possible to call `onlyOwner` functions anymore. Can only be called by the current owner.     * NOTE: Renouncing ownership will leave the contract without an owner, thereby removing any functionality that is only available to the owner."
      },
      "transferOwnership(address)": {
        "details": "Transfers ownership of the contract to a new account (`newOwner`). Can only be called by the current owner."
      }
    }
  },
  "userdoc": {
    "methods": {
      "constructor": "dev The Wallet's constructor to initialized the contract. ",
      "destroy()": {
        "notice": "dev This function delete the Wallet contract from the blockchain."
      },
      "getAmount(uint256)": {
        "notice": "dev Returns Amount from one token that response to an id."
      },
      "getBalanceToken(uint256)": {
        "notice": "dev Returns balance of token that response to an id."
      },
      "getBuyer(uint256)": {
        "notice": "dev Returns Buyer from one token that response to an id."
      },
      "getDayMaxOfSaleInvoice(uint256)": {
        "notice": "dev Returns dayMaxOfSaleInvoice() from one token that response to an id."
      },
      "getDaysOutstandingFactoring(uint256)": {
        "notice": "dev Returns daysOutstandingFactoring() from one token that response to an id."
      },
      "getDescription(uint256)": {
        "notice": "dev Returns description() from one token that response to an id."
      },
      "getFactor(uint256)": {
        "notice": "dev Returns Factor from one token that response to an id."
      },
      "getFactoringFee(uint256)": {
        "notice": "dev Returns factoringFee() from one token that response to an id."
      },
      "getFeePerDay(uint256)": {
        "notice": "dev Returns feePerDay() from one token that response to an id."
      },
      "getFundingEvent(uint256)": {
        "notice": "dev Returns function fundingEvent()'s state from one token that response to an id. "
      },
      "getInitialFunding(uint256)": {
        "notice": "dev Returns initial funding from one token that response to an id."
      },
      "getNonceInvoice(uint256)": {
        "notice": "dev Returns nonceInvoice from one token that response to an id."
      },
      "getNumberOfTokens()": {
        "notice": "dev Returns the number of tokens upload to blockchain"
      },
      "getReserve(uint256)": {
        "notice": "dev Returns reserve from one token that response to an id."
      },
      "getSeller(uint256)": {
        "notice": "dev Returns Seller from one token that response to an id."
      },
      "getWaitOfPay(uint256)": {
        "notice": "dev Returns function WaitOfPay()'s state from one token that response to an id. If the result is true,  t means that contract has been paid.  "
      },
      "setFundingEvent(uint256)": {
        "notice": "dev Call fundingEvent() function from the token that aim to id argument. "
      },
      "setRecovery(uint256,uint256)": {
        "notice": "dev Call recovery(_amount) function from the token that aim to id argument. "
      },
      "setWaitOfPay(uint256)": {
        "notice": "dev Call waitOfPay() function from the token that aim to id argument. "
      },
      "setWithdrawProfit(uint256,uint256)": {
        "notice": "dev Call withdrawProfit(_amount) function from the token that aim to id argument. "
      },
      "transferAdminship(address)": {
        "notice": "dev Transfer the power of this system to another person.  "
      },
      "uploadDeal(address,address,uint256,uint256,uint256,uint256,uint256,uint256,uint256)": {
        "notice": "dev This function is a factory of tokens. She make one ContractOfFactoring smart contract with each call, etting the token's address , save it into an array and a mapping and upload to blockcahin.  t's my favorite :)"
      }
    },
    "notice": "dev This is the main contract called Wallet."
  }
}